{
  "abi": [
    {
      "anonymous": false,
      "inputs": [
        {
          "indexed": true,
          "internalType": "address",
          "name": "previousOwner",
          "type": "address"
        },
        {
          "indexed": true,
          "internalType": "address",
          "name": "newOwner",
          "type": "address"
        }
      ],
      "name": "OwnershipTransferred",
      "type": "event"
    },
    {
      "inputs": [],
      "name": "owner",
      "outputs": [
        {
          "internalType": "address",
          "name": "",
          "type": "address"
        }
      ],
      "stateMutability": "view",
      "type": "function"
    },
    {
      "inputs": [
        {
          "internalType": "address",
          "name": "tokenAddress",
          "type": "address"
        },
        {
          "internalType": "uint256",
          "name": "tokenAmount",
          "type": "uint256"
        }
      ],
      "name": "recoverERC20",
      "outputs": [],
      "stateMutability": "nonpayable",
      "type": "function"
    },
    {
      "inputs": [],
      "name": "renounceOwnership",
      "outputs": [],
      "stateMutability": "nonpayable",
      "type": "function"
    },
    {
      "inputs": [
        {
          "internalType": "address",
          "name": "newOwner",
          "type": "address"
        }
      ],
      "name": "transferOwnership",
      "outputs": [],
      "stateMutability": "nonpayable",
      "type": "function"
    }
  ],
  "bytecode": {
    "object": "0x608060405234801561001057600080fd5b5061001a3361001f565b61006f565b600080546001600160a01b038381166001600160a01b0319831681178455604051919092169283917f8be0079c531659141344cd1fd0a4f28419497f9722a3daafe3b4186f6b6457e09190a35050565b61033b8061007e6000396000f3fe608060405234801561001057600080fd5b506004361061004c5760003560e01c8063715018a6146100515780638980f11f1461005b5780638da5cb5b1461006e578063f2fde38b1461008d575b600080fd5b6100596100a0565b005b610059610069366004610297565b6100b4565b600054604080516001600160a01b039092168252519081900360200190f35b61005961009b3660046102c1565b610153565b6100a86101d1565b6100b2600061022b565b565b6100bc6101d1565b816001600160a01b031663a9059cbb6100dd6000546001600160a01b031690565b6040516001600160e01b031960e084901b1681526001600160a01b039091166004820152602481018490526044016020604051808303816000875af115801561012a573d6000803e3d6000fd5b505050506040513d601f19601f8201168201806040525081019061014e91906102e3565b505050565b61015b6101d1565b6001600160a01b0381166101c55760405162461bcd60e51b815260206004820152602660248201527f4f776e61626c653a206e6577206f776e657220697320746865207a65726f206160448201526564647265737360d01b60648201526084015b60405180910390fd5b6101ce8161022b565b50565b6000546001600160a01b031633146100b25760405162461bcd60e51b815260206004820181905260248201527f4f776e61626c653a2063616c6c6572206973206e6f7420746865206f776e657260448201526064016101bc565b600080546001600160a01b038381166001600160a01b0319831681178455604051919092169283917f8be0079c531659141344cd1fd0a4f28419497f9722a3daafe3b4186f6b6457e09190a35050565b80356001600160a01b038116811461029257600080fd5b919050565b600080604083850312156102aa57600080fd5b6102b38361027b565b946020939093013593505050565b6000602082840312156102d357600080fd5b6102dc8261027b565b9392505050565b6000602082840312156102f557600080fd5b815180151581146102dc57600080fdfea264697066735822122093c4985d938e63340e1ecef89e716fcf211d9381b50617844722c3c3ffb399bb64736f6c634300080d0033",
    "linkReferences": {}
  }
}