{
  "abi": [
    {
      "inputs": [
        {
          "internalType": "uint256",
          "name": "_startBlock",
          "type": "uint256"
        },
        {
          "internalType": "uint256",
          "name": "_bonusEndBlock",
          "type": "uint256"
        },
        {
          "internalType": "address",
          "name": "_talentToken",
          "type": "address"
        },
        {
          "internalType": "address",
          "name": "_veTalentToken",
          "type": "address"
        }
      ],
      "stateMutability": "nonpayable",
      "type": "constructor"
    },
    {
      "anonymous": false,
      "inputs": [
        {
          "indexed": true,
          "internalType": "address",
          "name": "sender",
          "type": "address"
        },
        {
          "indexed": true,
          "internalType": "address",
          "name": "burnAddress",
          "type": "address"
        }
      ],
      "name": "BurnAddressUpdated",
      "type": "event"
    },
    {
      "anonymous": false,
      "inputs": [
        {
          "indexed": true,
          "internalType": "address",
          "name": "user",
          "type": "address"
        },
        {
          "indexed": true,
          "internalType": "uint256",
          "name": "pid",
          "type": "uint256"
        },
        {
          "indexed": false,
          "internalType": "uint256",
          "name": "amount",
          "type": "uint256"
        }
      ],
      "name": "DepositMade",
      "type": "event"
    },
    {
      "anonymous": false,
      "inputs": [
        {
          "indexed": false,
          "internalType": "address",
          "name": "user",
          "type": "address"
        },
        {
          "indexed": false,
          "internalType": "uint256",
          "name": "amount",
          "type": "uint256"
        },
        {
          "indexed": false,
          "internalType": "uint256",
          "name": "timestamp",
          "type": "uint256"
        }
      ],
      "name": "Deposited",
      "type": "event"
    },
    {
      "anonymous": false,
      "inputs": [
        {
          "indexed": true,
          "internalType": "address",
          "name": "user",
          "type": "address"
        },
        {
          "indexed": false,
          "internalType": "uint256",
          "name": "amount",
          "type": "uint256"
        },
        {
          "indexed": false,
          "internalType": "uint256",
          "name": "timestamp",
          "type": "uint256"
        }
      ],
      "name": "Entered",
      "type": "event"
    },
    {
      "anonymous": false,
      "inputs": [
        {
          "indexed": true,
          "internalType": "address",
          "name": "user",
          "type": "address"
        },
        {
          "indexed": false,
          "internalType": "uint256",
          "name": "amount",
          "type": "uint256"
        },
        {
          "indexed": false,
          "internalType": "uint256",
          "name": "timestamp",
          "type": "uint256"
        }
      ],
      "name": "Exited",
      "type": "event"
    },
    {
      "anonymous": false,
      "inputs": [
        {
          "indexed": true,
          "internalType": "uint256",
          "name": "pid",
          "type": "uint256"
        },
        {
          "indexed": false,
          "internalType": "uint256",
          "name": "allocPoint",
          "type": "uint256"
        }
      ],
      "name": "LogSetPool",
      "type": "event"
    },
    {
      "anonymous": false,
      "inputs": [
        {
          "indexed": true,
          "internalType": "address",
          "name": "previousOwner",
          "type": "address"
        },
        {
          "indexed": true,
          "internalType": "address",
          "name": "newOwner",
          "type": "address"
        }
      ],
      "name": "OwnershipTransferred",
      "type": "event"
    },
    {
      "anonymous": false,
      "inputs": [
        {
          "indexed": true,
          "internalType": "bytes32",
          "name": "role",
          "type": "bytes32"
        },
        {
          "indexed": true,
          "internalType": "bytes32",
          "name": "previousAdminRole",
          "type": "bytes32"
        },
        {
          "indexed": true,
          "internalType": "bytes32",
          "name": "newAdminRole",
          "type": "bytes32"
        }
      ],
      "name": "RoleAdminChanged",
      "type": "event"
    },
    {
      "anonymous": false,
      "inputs": [
        {
          "indexed": true,
          "internalType": "bytes32",
          "name": "role",
          "type": "bytes32"
        },
        {
          "indexed": true,
          "internalType": "address",
          "name": "account",
          "type": "address"
        },
        {
          "indexed": true,
          "internalType": "address",
          "name": "sender",
          "type": "address"
        }
      ],
      "name": "RoleGranted",
      "type": "event"
    },
    {
      "anonymous": false,
      "inputs": [
        {
          "indexed": true,
          "internalType": "bytes32",
          "name": "role",
          "type": "bytes32"
        },
        {
          "indexed": true,
          "internalType": "address",
          "name": "account",
          "type": "address"
        },
        {
          "indexed": true,
          "internalType": "address",
          "name": "sender",
          "type": "address"
        }
      ],
      "name": "RoleRevoked",
      "type": "event"
    },
    {
      "anonymous": false,
      "inputs": [
        {
          "indexed": true,
          "internalType": "address",
          "name": "user",
          "type": "address"
        },
        {
          "indexed": true,
          "internalType": "address",
          "name": "newAddress",
          "type": "address"
        }
      ],
      "name": "SetFeeAddress",
      "type": "event"
    },
    {
      "anonymous": false,
      "inputs": [
        {
          "indexed": true,
          "internalType": "address",
          "name": "sender",
          "type": "address"
        },
        {
          "indexed": false,
          "internalType": "uint256",
          "name": "talentPerBlock",
          "type": "uint256"
        }
      ],
      "name": "UpdateEmissionRate",
      "type": "event"
    },
    {
      "anonymous": false,
      "inputs": [
        {
          "indexed": true,
          "internalType": "address",
          "name": "user",
          "type": "address"
        },
        {
          "indexed": true,
          "internalType": "uint256",
          "name": "pid",
          "type": "uint256"
        },
        {
          "indexed": false,
          "internalType": "uint256",
          "name": "amount",
          "type": "uint256"
        }
      ],
      "name": "Withdraw",
      "type": "event"
    },
    {
      "inputs": [],
      "name": "BONUS_MULTIPLIER",
      "outputs": [
        {
          "internalType": "uint256",
          "name": "",
          "type": "uint256"
        }
      ],
      "stateMutability": "view",
      "type": "function"
    },
    {
      "inputs": [],
      "name": "DAO_ROLE",
      "outputs": [
        {
          "internalType": "bytes32",
          "name": "",
          "type": "bytes32"
        }
      ],
      "stateMutability": "view",
      "type": "function"
    },
    {
      "inputs": [],
      "name": "DEFAULT_ADMIN_ROLE",
      "outputs": [
        {
          "internalType": "bytes32",
          "name": "",
          "type": "bytes32"
        }
      ],
      "stateMutability": "view",
      "type": "function"
    },
    {
      "inputs": [],
      "name": "OPERATOR_ROLE",
      "outputs": [
        {
          "internalType": "bytes32",
          "name": "",
          "type": "bytes32"
        }
      ],
      "stateMutability": "view",
      "type": "function"
    },
    {
      "inputs": [],
      "name": "TALENT_PER_BLOCK",
      "outputs": [
        {
          "internalType": "uint256",
          "name": "",
          "type": "uint256"
        }
      ],
      "stateMutability": "view",
      "type": "function"
    },
    {
      "inputs": [
        {
          "internalType": "uint256",
          "name": "_allocationPoint",
          "type": "uint256"
        },
        {
          "internalType": "address",
          "name": "_asset",
          "type": "address"
        }
      ],
      "name": "addStakePool",
      "outputs": [
        {
          "internalType": "bool",
          "name": "success",
          "type": "bool"
        }
      ],
      "stateMutability": "nonpayable",
      "type": "function"
    },
    {
      "inputs": [],
      "name": "bonusEndBlock",
      "outputs": [
        {
          "internalType": "uint256",
          "name": "",
          "type": "uint256"
        }
      ],
      "stateMutability": "view",
      "type": "function"
    },
    {
      "inputs": [],
      "name": "burnAddress",
      "outputs": [
        {
          "internalType": "address",
          "name": "",
          "type": "address"
        }
      ],
      "stateMutability": "view",
      "type": "function"
    },
    {
      "inputs": [],
      "name": "currentApy",
      "outputs": [
        {
          "internalType": "uint256",
          "name": "",
          "type": "uint256"
        }
      ],
      "stateMutability": "view",
      "type": "function"
    },
    {
      "inputs": [
        {
          "internalType": "uint256",
          "name": "_poolId",
          "type": "uint256"
        },
        {
          "internalType": "uint256",
          "name": "_amount",
          "type": "uint256"
        }
      ],
      "name": "deposit",
      "outputs": [],
      "stateMutability": "nonpayable",
      "type": "function"
    },
    {
      "inputs": [
        {
          "internalType": "uint256",
          "name": "_poolId",
          "type": "uint256"
        }
      ],
      "name": "emergencyWithdraw",
      "outputs": [],
      "stateMutability": "nonpayable",
      "type": "function"
    },
    {
      "inputs": [
        {
          "internalType": "uint256",
          "name": "_from",
          "type": "uint256"
        },
        {
          "internalType": "uint256",
          "name": "_to",
          "type": "uint256"
        }
      ],
      "name": "getMultiplier",
      "outputs": [
        {
          "internalType": "uint256",
          "name": "",
          "type": "uint256"
        }
      ],
      "stateMutability": "view",
      "type": "function"
    },
    {
      "inputs": [
        {
          "internalType": "bytes32",
          "name": "role",
          "type": "bytes32"
        }
      ],
      "name": "getRoleAdmin",
      "outputs": [
        {
          "internalType": "bytes32",
          "name": "",
          "type": "bytes32"
        }
      ],
      "stateMutability": "view",
      "type": "function"
    },
    {
      "inputs": [
        {
          "internalType": "bytes32",
          "name": "role",
          "type": "bytes32"
        },
        {
          "internalType": "address",
          "name": "account",
          "type": "address"
        }
      ],
      "name": "grantRole",
      "outputs": [],
      "stateMutability": "nonpayable",
      "type": "function"
    },
    {
      "inputs": [
        {
          "internalType": "bytes32",
          "name": "role",
          "type": "bytes32"
        },
        {
          "internalType": "address",
          "name": "account",
          "type": "address"
        }
      ],
      "name": "hasRole",
      "outputs": [
        {
          "internalType": "bool",
          "name": "",
          "type": "bool"
        }
      ],
      "stateMutability": "view",
      "type": "function"
    },
    {
      "inputs": [],
      "name": "numOfPools",
      "outputs": [
        {
          "internalType": "uint256",
          "name": "",
          "type": "uint256"
        }
      ],
      "stateMutability": "view",
      "type": "function"
    },
    {
      "inputs": [],
      "name": "owner",
      "outputs": [
        {
          "internalType": "address",
          "name": "",
          "type": "address"
        }
      ],
      "stateMutability": "view",
      "type": "function"
    },
    {
      "inputs": [
        {
          "internalType": "uint256",
          "name": "_pid",
          "type": "uint256"
        },
        {
          "internalType": "address",
          "name": "_staker",
          "type": "address"
        }
      ],
      "name": "pendingTalent",
      "outputs": [
        {
          "internalType": "uint256",
          "name": "",
          "type": "uint256"
        }
      ],
      "stateMutability": "view",
      "type": "function"
    },
    {
      "inputs": [
        {
          "internalType": "uint256",
          "name": "_poolId",
          "type": "uint256"
        }
      ],
      "name": "poolDetails",
      "outputs": [
        {
          "internalType": "uint256[4]",
          "name": "",
          "type": "uint256[4]"
        }
      ],
      "stateMutability": "view",
      "type": "function"
    },
    {
      "inputs": [
        {
          "internalType": "uint256",
          "name": "",
          "type": "uint256"
        }
      ],
      "name": "pools",
      "outputs": [
        {
          "internalType": "address",
          "name": "asset",
          "type": "address"
        },
        {
          "internalType": "uint256",
          "name": "allocationPoint",
          "type": "uint256"
        },
        {
          "internalType": "uint256",
          "name": "lastRewardBlock",
          "type": "uint256"
        },
        {
          "internalType": "uint256",
          "name": "depositSum",
          "type": "uint256"
        },
        {
          "internalType": "uint256",
          "name": "accTalentPerShare",
          "type": "uint256"
        }
      ],
      "stateMutability": "view",
      "type": "function"
    },
    {
      "inputs": [
        {
          "internalType": "address",
          "name": "tokenAddress",
          "type": "address"
        },
        {
          "internalType": "uint256",
          "name": "tokenAmount",
          "type": "uint256"
        }
      ],
      "name": "recoverERC20",
      "outputs": [],
      "stateMutability": "nonpayable",
      "type": "function"
    },
    {
      "inputs": [],
      "name": "renounceOwnership",
      "outputs": [],
      "stateMutability": "nonpayable",
      "type": "function"
    },
    {
      "inputs": [
        {
          "internalType": "bytes32",
          "name": "role",
          "type": "bytes32"
        },
        {
          "internalType": "address",
          "name": "account",
          "type": "address"
        }
      ],
      "name": "renounceRole",
      "outputs": [],
      "stateMutability": "nonpayable",
      "type": "function"
    },
    {
      "inputs": [
        {
          "internalType": "bytes32",
          "name": "role",
          "type": "bytes32"
        },
        {
          "internalType": "address",
          "name": "account",
          "type": "address"
        }
      ],
      "name": "revokeRole",
      "outputs": [],
      "stateMutability": "nonpayable",
      "type": "function"
    },
    {
      "inputs": [],
      "name": "rewardFee",
      "outputs": [
        {
          "internalType": "uint256",
          "name": "",
          "type": "uint256"
        }
      ],
      "stateMutability": "view",
      "type": "function"
    },
    {
      "inputs": [
        {
          "internalType": "uint256",
          "name": "_poolId",
          "type": "uint256"
        },
        {
          "internalType": "uint256",
          "name": "_allocPoint",
          "type": "uint256"
        }
      ],
      "name": "set",
      "outputs": [],
      "stateMutability": "nonpayable",
      "type": "function"
    },
    {
      "inputs": [
        {
          "internalType": "uint256",
          "name": "_bonusEndBlock",
          "type": "uint256"
        }
      ],
      "name": "setBonusEndBlock",
      "outputs": [],
      "stateMutability": "nonpayable",
      "type": "function"
    },
    {
      "inputs": [
        {
          "internalType": "uint256",
          "name": "_rewardFee",
          "type": "uint256"
        }
      ],
      "name": "setRewardFee",
      "outputs": [],
      "stateMutability": "nonpayable",
      "type": "function"
    },
    {
      "inputs": [
        {
          "internalType": "uint256",
          "name": "_poolId",
          "type": "uint256"
        },
        {
          "internalType": "address",
          "name": "_staker",
          "type": "address"
        }
      ],
      "name": "stakerDetails",
      "outputs": [
        {
          "internalType": "uint256[2]",
          "name": "",
          "type": "uint256[2]"
        }
      ],
      "stateMutability": "view",
      "type": "function"
    },
    {
      "inputs": [
        {
          "internalType": "uint256",
          "name": "",
          "type": "uint256"
        },
        {
          "internalType": "address",
          "name": "",
          "type": "address"
        }
      ],
      "name": "stakerInfo",
      "outputs": [
        {
          "internalType": "uint256",
          "name": "amount",
          "type": "uint256"
        },
        {
          "internalType": "uint256",
          "name": "rewardDebt",
          "type": "uint256"
        }
      ],
      "stateMutability": "view",
      "type": "function"
    },
    {
      "inputs": [],
      "name": "startBlock",
      "outputs": [
        {
          "internalType": "uint256",
          "name": "",
          "type": "uint256"
        }
      ],
      "stateMutability": "view",
      "type": "function"
    },
    {
      "inputs": [
        {
          "internalType": "bytes4",
          "name": "interfaceId",
          "type": "bytes4"
        }
      ],
      "name": "supportsInterface",
      "outputs": [
        {
          "internalType": "bool",
          "name": "",
          "type": "bool"
        }
      ],
      "stateMutability": "view",
      "type": "function"
    },
    {
      "inputs": [],
      "name": "talentToken",
      "outputs": [
        {
          "internalType": "contract ITDAOToken",
          "name": "",
          "type": "address"
        }
      ],
      "stateMutability": "view",
      "type": "function"
    },
    {
      "inputs": [],
      "name": "totalAllocationPoint",
      "outputs": [
        {
          "internalType": "uint256",
          "name": "",
          "type": "uint256"
        }
      ],
      "stateMutability": "view",
      "type": "function"
    },
    {
      "inputs": [
        {
          "internalType": "address",
          "name": "newOwner",
          "type": "address"
        }
      ],
      "name": "transferOwnership",
      "outputs": [],
      "stateMutability": "nonpayable",
      "type": "function"
    },
    {
      "inputs": [
        {
          "internalType": "uint256",
          "name": "_talentPerBlock",
          "type": "uint256"
        }
      ],
      "name": "updateEmissionRate",
      "outputs": [],
      "stateMutability": "nonpayable",
      "type": "function"
    },
    {
      "inputs": [
        {
          "internalType": "uint256",
          "name": "_poolId",
          "type": "uint256"
        }
      ],
      "name": "updatePool",
      "outputs": [],
      "stateMutability": "nonpayable",
      "type": "function"
    },
    {
      "inputs": [],
      "name": "veTalentToken",
      "outputs": [
        {
          "internalType": "contract IVETDAOToken",
          "name": "",
          "type": "address"
        }
      ],
      "stateMutability": "view",
      "type": "function"
    },
    {
      "inputs": [
        {
          "internalType": "uint256",
          "name": "_poolId",
          "type": "uint256"
        },
        {
          "internalType": "uint256",
          "name": "_amount",
          "type": "uint256"
        }
      ],
      "name": "withdraw",
      "outputs": [],
      "stateMutability": "nonpayable",
      "type": "function"
    },
    {
      "stateMutability": "payable",
      "type": "receive"
    }
  ],
  "bytecode": {
    "object": "0x60806040526064600655671bc16d674ec800006009556000600a553480156200002757600080fd5b5060405162002278380380620022788339810160408190526200004a916200037d565b6200005533620000ff565b60078490556008839055600380546001600160a01b038085166001600160a01b03199283161790925560048054928416929091169190911790556200009c600a8362000151565b50620000c97f97667070c54ef182b0f5858b034beac1b6f3089aa2d3188bb1e8929f4fa9b9293362000252565b620000f57f3b5d4cc60d3ec3516ee8ae083bd60934f6eb2a6c54b1229985c41bfb092b26033362000252565b5050505062000415565b600180546001600160a01b038381166001600160a01b0319831681179093556040519116919082907f8be0079c531659141344cd1fd0a4f28419497f9722a3daafe3b4186f6b6457e090600090a35050565b60006200015d62000262565b6000831180156200016e5750606583105b620001c05760405162461bcd60e51b815260206004820181905260248201527f4f7574736964652074686520626f756e6473206f66207468652073797374656d60448201526064015b60405180910390fd5b60006007544311620001d557600754620001d7565b435b905083600a54620001e99190620003de565b600a55600b8054600091600d918391826200020483620003f9565b9091555081526020810191909152604001600090812080546001600160a01b0387166001600160a01b0319909116178155600180820188905560028201949094556003015550905092915050565b6200025e8282620002c0565b5050565b6001546001600160a01b03163314620002be5760405162461bcd60e51b815260206004820181905260248201527f4f776e61626c653a2063616c6c6572206973206e6f7420746865206f776e65726044820152606401620001b7565b565b6000828152602081815260408083206001600160a01b038516845290915290205460ff166200025e576000828152602081815260408083206001600160a01b03851684529091529020805460ff191660011790556200031c3390565b6001600160a01b0316816001600160a01b0316837f2f8788117e7eff1d82e926ec794901d17c78024a50270940304540a733656f0d60405160405180910390a45050565b80516001600160a01b03811681146200037857600080fd5b919050565b600080600080608085870312156200039457600080fd5b8451935060208501519250620003ad6040860162000360565b9150620003bd6060860162000360565b905092959194509250565b634e487b7160e01b600052601160045260246000fd5b60008219821115620003f457620003f4620003c8565b500190565b6000600182016200040e576200040e620003c8565b5060010190565b611e5380620004256000396000f3fe6080604052600436106102345760003560e01c80638980f11f1161012e578063b1dce2d8116100ab578063e2bbb1581161006f578063e2bbb15814610718578063e9c2651814610738578063f2fde38b1461076c578063f5b541a61461078c578063fcbd2a88146107c057600080fd5b8063b1dce2d81461064b578063b996de6714610678578063d547741f1461068e578063d683d2c9146106ae578063d751e5d9146106c457600080fd5b806391d14854116100f257806391d148541461055a5780639e0af2341461057a578063a1a6690f1461059a578063a217fddf146105b0578063ac4afa38146105c557600080fd5b80638980f11f146104d15780638aa28550146104f15780638b424267146105065780638da5cb5b1461051c5780638dbb1e3a1461053a57600080fd5b806336568abe116101bc5780635312ea8e116101805780635312ea8e1461043957806370d5ae0514610459578063715018a61461046f5780637a260b3f1461048457806384bc4b1a146104b157600080fd5b806336568abe146103a357806341a2ac70146103c3578063441a3e70146103e357806348cd4cb11461040357806351eb05a61461041957600080fd5b80631599619b116102035780631599619b146102fd5780631ab06ee51461031d5780631aed65531461033d578063248a9ca3146103535780632f2ff15d1461038357600080fd5b806301ffc9a71461024057806306e9d6e6146102755780630952d9c7146102ad5780630ba84cd2146102db57600080fd5b3661023b57005b600080fd5b34801561024c57600080fd5b5061026061025b366004611ae1565b6107d6565b60405190151581526020015b60405180910390f35b34801561028157600080fd5b50600354610295906001600160a01b031681565b6040516001600160a01b03909116815260200161026c565b3480156102b957600080fd5b506102cd6102c8366004611b27565b61080d565b60405190815260200161026c565b3480156102e757600080fd5b506102fb6102f6366004611b53565b61095f565b005b34801561030957600080fd5b50610260610318366004611b27565b610a38565b34801561032957600080fd5b506102fb610338366004611b6c565b610b2a565b34801561034957600080fd5b506102cd60085481565b34801561035f57600080fd5b506102cd61036e366004611b53565b60009081526020819052604090206001015490565b34801561038f57600080fd5b506102fb61039e366004611b27565b610b67565b3480156103af57600080fd5b506102fb6103be366004611b27565b610b91565b3480156103cf57600080fd5b506102fb6103de366004611b53565b610c0f565b3480156103ef57600080fd5b506102fb6103fe366004611b6c565b610c6c565b34801561040f57600080fd5b506102cd60075481565b34801561042557600080fd5b506102fb610434366004611b53565b610e2c565b34801561044557600080fd5b506102fb610454366004611b53565b610fad565b34801561046557600080fd5b5061029561dead81565b34801561047b57600080fd5b506102fb61109b565b34801561049057600080fd5b506104a461049f366004611b53565b6110af565b60405161026c9190611b8e565b3480156104bd57600080fd5b50600454610295906001600160a01b031681565b3480156104dd57600080fd5b506102fb6104ec366004611bbf565b6110ff565b3480156104fd57600080fd5b506102cd600281565b34801561051257600080fd5b506102cd60065481565b34801561052857600080fd5b506001546001600160a01b0316610295565b34801561054657600080fd5b506102cd610555366004611b6c565b611199565b34801561056657600080fd5b50610260610575366004611b27565b611204565b34801561058657600080fd5b506102fb610595366004611b53565b61122d565b3480156105a657600080fd5b506102cd600a5481565b3480156105bc57600080fd5b506102cd600081565b3480156105d157600080fd5b506106196105e0366004611b53565b600d60205260009081526040902080546001820154600283015460038401546004909401546001600160a01b0390931693919290919085565b604080516001600160a01b0390961686526020860194909452928401919091526060830152608082015260a00161026c565b34801561065757600080fd5b5061066b610666366004611b27565b61123a565b60405161026c9190611be9565b34801561068457600080fd5b506102cd60055481565b34801561069a57600080fd5b506102fb6106a9366004611b27565b611280565b3480156106ba57600080fd5b506102cd60095481565b3480156106d057600080fd5b506107036106df366004611b27565b600e6020908152600092835260408084209091529082529020805460019091015482565b6040805192835260208301919091520161026c565b34801561072457600080fd5b506102fb610733366004611b6c565b6112a5565b34801561074457600080fd5b506102cd7f3b5d4cc60d3ec3516ee8ae083bd60934f6eb2a6c54b1229985c41bfb092b260381565b34801561077857600080fd5b506102fb610787366004611c11565b61142e565b34801561079857600080fd5b506102cd7f97667070c54ef182b0f5858b034beac1b6f3089aa2d3188bb1e8929f4fa9b92981565b3480156107cc57600080fd5b506102cd600b5481565b60006001600160e01b03198216637965db0b60e01b148061080757506301ffc9a760e01b6001600160e01b03198316145b92915050565b6000828152600d60209081526040808320600e83528184206001600160a01b038681168652935281842060048083015460035494516370a0823160e01b8152309281019290925292949193869216906370a0823190602401602060405180830381865afa158015610882573d6000803e3d6000fd5b505050506040513d601f19601f820116820180604052508101906108a69190611c2c565b90508360020154431180156108ba57508015155b156109275760006108cf856002015443611199565b90506000600a5486600101546009546108e89190611c5b565b6108f29084611c5b565b6108fc9190611c7a565b90508261090e8264e8d4a51000611c5b565b6109189190611c7a565b6109229085611c9c565b935050505b6001830154835464e8d4a5100090610940908590611c5b565b61094a9190611c7a565b6109549190611cb4565b979650505050505050565b6109676114a7565b6109917f3b5d4cc60d3ec3516ee8ae083bd60934f6eb2a6c54b1229985c41bfb092b260333611204565b6109fb5760405162461bcd60e51b815260206004820152603060248201527f74616c656e745374616b65506f6f6c203a3a206e6f7420696e2074686520444160448201526f27903937b632961039b7b9393c97171760811b60648201526084015b60405180910390fd5b600981905560405181815233907fe2492e003bbe8afa53088b406f0c1cb5d9e280370fc72a74cf116ffd343c40539060200160405180910390a250565b6000610a426114a7565b600083118015610a525750606583105b610a9e5760405162461bcd60e51b815260206004820181905260248201527f4f7574736964652074686520626f756e6473206f66207468652073797374656d60448201526064016109f2565b60006007544311610ab157600754610ab3565b435b905083600a54610ac39190611c9c565b600a55600b8054600091600d91839182610adc83611ccb565b9091555081526020810191909152604001600090812080546001600160a01b0387166001600160a01b0319909116178155600180820188905560028201949094556003015550905092915050565b610b326114a7565b6000828152600d602052604090206001810154600a548391610b5391611cb4565b610b5d9190611c9c565b600a556001015550565b600082815260208190526040902060010154610b8281611501565b610b8c838361150b565b505050565b6001600160a01b0381163314610c015760405162461bcd60e51b815260206004820152602f60248201527f416363657373436f6e74726f6c3a2063616e206f6e6c792072656e6f756e636560448201526e103937b632b9903337b91039b2b63360891b60648201526084016109f2565b610c0b828261158f565b5050565b610c176114a7565b60008111610c675760405162461bcd60e51b815260206004820152601960248201527f4d7573742062652067726561746572207468616e207a65726f0000000000000060448201526064016109f2565b600655565b6000828152600d60209081526040808320600e83528184203385529092529091208054831115610cd35760405162461bcd60e51b81526020600482015260126024820152711dda5d1a191c985dce881b9bdd0819dbdbd960721b60448201526064016109f2565b610cdc84610e2c565b6000816001015464e8d4a5100084600401548460000154610cfd9190611c5b565b610d079190611c7a565b610d119190611cb4565b9050610d1e606482611c7a565b610d2990605a611c5b565b9050610d3533826115f4565b6004805460405163079cc67960e41b81523392810192909252602482018690526001600160a01b0316906379cc679090604401600060405180830381600087803b158015610d8257600080fd5b505af1158015610d96573d6000803e3d6000fd5b50505050610da433856115f4565b8154610db1908590611cb4565b808355600484015464e8d4a5100091610dca9190611c5b565b610dd49190611c7a565b60018301556003830154610de9908590611cb4565b6003840155604051848152859033907ff279e6a1f5e320cca91135676d9cb6e44ca8a08c0b88342bcdb1144f6511b5689060200160405180910390a35050505050565b6000818152600d6020526040902060028101544311610e49575050565b6003546040516370a0823160e01b81523060048201526000916001600160a01b0316906370a0823190602401602060405180830381865afa158015610e92573d6000803e3d6000fd5b505050506040513d601f19601f82011682018060405250810190610eb69190611c2c565b905080600003610ecb57504360029091015550565b6000610edb836002015443611199565b90506000600a548460010154600954610ef49190611c5b565b610efe9084611c5b565b610f089190611c7a565b6003546040516302a4d0df60e11b8152306004820152602481018390529192506001600160a01b031690630549a1be90604401600060405180830381600087803b158015610f5557600080fd5b505af1158015610f69573d6000803e3d6000fd5b50505050828164e8d4a51000610f7f9190611c5b565b610f899190611c7a565b8460040154610f989190611c9c565b60048501555050436002909201919091555050565b6000818152600d60209081526040808320600e835281842033855290925290912080546003830154610fe0908290611cb4565b6003840155600080835560018301556004805460405163079cc67960e41b81523392810192909252602482018390526001600160a01b0316906379cc679090604401600060405180830381600087803b15801561103c57600080fd5b505af1158015611050573d6000803e3d6000fd5b5050505061105e33826115f4565b604051818152849033907ff279e6a1f5e320cca91135676d9cb6e44ca8a08c0b88342bcdb1144f6511b5689060200160405180910390a350505050565b6110a36114a7565b6110ad6000611754565b565b6110b7611aa5565b506000908152600d6020908152604091829020825160808101845260018201548152600282015492810192909252600381015492820192909252600490910154606082015290565b6111076114a7565b816001600160a01b031663a9059cbb6111286001546001600160a01b031690565b6040516001600160e01b031960e084901b1681526001600160a01b039091166004820152602481018490526044016020604051808303816000875af1158015611175573d6000803e3d6000fd5b505050506040513d601f19601f82011682018060405250810190610b8c9190611ce4565b600060085482116111c0576111af600284611c5b565b6111b99083611cb4565b9050610807565b60085483106111d3576111b98383611cb4565b6008546111e09083611cb4565b6002846008546111f09190611cb4565b6111fa9190611c5b565b6111b99190611c9c565b6000918252602082815260408084206001600160a01b0393909316845291905290205460ff1690565b6112356114a7565b600855565b611242611ac3565b506000828152600e602090815260408083206001600160a01b0385168452825291829020825180840190935280548352600101549082015292915050565b60008281526020819052604090206001015461129b81611501565b610b8c838361158f565b6000828152600d60209081526040808320600e83528184203385529092529091206112cf84610e2c565b805415611319576000816001015464e8d4a51000846004015484600001546112f79190611c5b565b6113019190611c7a565b61130b9190611cb4565b905061131733826115f4565b505b6003546040516323b872dd60e01b8152336004820152306024820152604481018590526001600160a01b03909116906323b872dd906064016020604051808303816000875af1158015611370573d6000803e3d6000fd5b505050506040513d601f19601f820116820180604052508101906113949190611ce4565b508282600301546113a59190611c9c565b60038301556113b433846117a6565b80546113c1908490611c9c565b808255600483015464e8d4a51000916113da9190611c9c565b6113e49190611c7a565b60018201556040805133815260208101859052428183015290517f73a19dd210f1a7f902193214c0ee91dd35ee5b4d920cba8d519eca65a7b488ca9181900360600190a150505050565b6114366114a7565b6001600160a01b03811661149b5760405162461bcd60e51b815260206004820152602660248201527f4f776e61626c653a206e6577206f776e657220697320746865207a65726f206160448201526564647265737360d01b60648201526084016109f2565b6114a481611754565b50565b6001546001600160a01b031633146110ad5760405162461bcd60e51b815260206004820181905260248201527f4f776e61626c653a2063616c6c6572206973206e6f7420746865206f776e657260448201526064016109f2565b6114a48133611897565b6115158282611204565b610c0b576000828152602081815260408083206001600160a01b03851684529091529020805460ff1916600117905561154b3390565b6001600160a01b0316816001600160a01b0316837f2f8788117e7eff1d82e926ec794901d17c78024a50270940304540a733656f0d60405160405180910390a45050565b6115998282611204565b15610c0b576000828152602081815260408083206001600160a01b0385168085529252808320805460ff1916905551339285917ff6391f5c32d9c69d2a47ea670b442974b53935d1edc7fd64eb21e047a839171b9190a45050565b6003546040516370a0823160e01b81523060048201526000916001600160a01b0316906370a0823190602401602060405180830381865afa15801561163d573d6000803e3d6000fd5b505050506040513d601f19601f820116820180604052508101906116619190611c2c565b90508082116116e85760035460405163a9059cbb60e01b81526001600160a01b038581166004830152602482018590529091169063a9059cbb906044015b6020604051808303816000875af11580156116be573d6000803e3d6000fd5b505050506040513d601f19601f820116820180604052508101906116e29190611ce4565b50505050565b6003546040516302a4d0df60e11b81526001600160a01b0385811660048301526024820185905290911690630549a1be906044015b600060405180830381600087803b15801561173757600080fd5b505af115801561174b573d6000803e3d6000fd5b50505050505050565b600180546001600160a01b038381166001600160a01b0319831681179093556040519116919082907f8be0079c531659141344cd1fd0a4f28419497f9722a3daafe3b4186f6b6457e090600090a35050565b600480546040516370a0823160e01b815230928101929092526000916001600160a01b03909116906370a0823190602401602060405180830381865afa1580156117f4573d6000803e3d6000fd5b505050506040513d601f19601f820116820180604052508101906118189190611c2c565b905080821161185c576004805460405163a9059cbb60e01b81526001600160a01b03868116938201939093526024810184905291169063a9059cbb9060440161169f565b600480546040516302a4d0df60e11b81526001600160a01b038681169382019390935260248101859052911690630549a1be9060440161171d565b6118a18282611204565b610c0b576118ae816118f0565b6118b9836020611902565b6040516020016118ca929190611d32565b60408051601f198184030181529082905262461bcd60e51b82526109f291600401611da7565b60606108076001600160a01b03831660145b60606000611911836002611c5b565b61191c906002611c9c565b67ffffffffffffffff81111561193457611934611dda565b6040519080825280601f01601f19166020018201604052801561195e576020820181803683370190505b509050600360fc1b8160008151811061197957611979611df0565b60200101906001600160f81b031916908160001a905350600f60fb1b816001815181106119a8576119a8611df0565b60200101906001600160f81b031916908160001a90535060006119cc846002611c5b565b6119d7906001611c9c565b90505b6001811115611a4f576f181899199a1a9b1b9c1cb0b131b232b360811b85600f1660108110611a0b57611a0b611df0565b1a60f81b828281518110611a2157611a21611df0565b60200101906001600160f81b031916908160001a90535060049490941c93611a4881611e06565b90506119da565b508315611a9e5760405162461bcd60e51b815260206004820181905260248201527f537472696e67733a20686578206c656e67746820696e73756666696369656e7460448201526064016109f2565b9392505050565b60405180608001604052806004906020820280368337509192915050565b60405180604001604052806002906020820280368337509192915050565b600060208284031215611af357600080fd5b81356001600160e01b031981168114611a9e57600080fd5b80356001600160a01b0381168114611b2257600080fd5b919050565b60008060408385031215611b3a57600080fd5b82359150611b4a60208401611b0b565b90509250929050565b600060208284031215611b6557600080fd5b5035919050565b60008060408385031215611b7f57600080fd5b50508035926020909101359150565b60808101818360005b6004811015611bb6578151835260209283019290910190600101611b97565b50505092915050565b60008060408385031215611bd257600080fd5b611bdb83611b0b565b946020939093013593505050565b60408101818360005b6002811015611bb6578151835260209283019290910190600101611bf2565b600060208284031215611c2357600080fd5b611a9e82611b0b565b600060208284031215611c3e57600080fd5b5051919050565b634e487b7160e01b600052601160045260246000fd5b6000816000190483118215151615611c7557611c75611c45565b500290565b600082611c9757634e487b7160e01b600052601260045260246000fd5b500490565b60008219821115611caf57611caf611c45565b500190565b600082821015611cc657611cc6611c45565b500390565b600060018201611cdd57611cdd611c45565b5060010190565b600060208284031215611cf657600080fd5b81518015158114611a9e57600080fd5b60005b83811015611d21578181015183820152602001611d09565b838111156116e25750506000910152565b7f416363657373436f6e74726f6c3a206163636f756e7420000000000000000000815260008351611d6a816017850160208801611d06565b7001034b99036b4b9b9b4b733903937b6329607d1b6017918401918201528351611d9b816028840160208801611d06565b01602801949350505050565b6020815260008251806020840152611dc6816040850160208701611d06565b601f01601f19169190910160400192915050565b634e487b7160e01b600052604160045260246000fd5b634e487b7160e01b600052603260045260246000fd5b600081611e1557611e15611c45565b50600019019056fea264697066735822122064450c6358a147ee8f93f608c4f221ac2b80b9f841b4570548794a4c1a8a1bb664736f6c634300080d0033",
    "linkReferences": {}
  }
}