{
  "abi": [
    {
      "inputs": [
        {
          "internalType": "address",
          "name": "owner_",
          "type": "address"
        }
      ],
      "stateMutability": "nonpayable",
      "type": "constructor"
    },
    {
      "inputs": [],
      "name": "WrongRole",
      "type": "error"
    },
    {
      "inputs": [],
      "name": "ZeroAddress",
      "type": "error"
    },
    {
      "anonymous": false,
      "inputs": [
        {
          "indexed": true,
          "internalType": "address",
          "name": "owner",
          "type": "address"
        },
        {
          "indexed": true,
          "internalType": "address",
          "name": "spender",
          "type": "address"
        },
        {
          "indexed": false,
          "internalType": "uint256",
          "name": "value",
          "type": "uint256"
        }
      ],
      "name": "Approval",
      "type": "event"
    },
    {
      "anonymous": false,
      "inputs": [
        {
          "indexed": true,
          "internalType": "address",
          "name": "previousOwner",
          "type": "address"
        },
        {
          "indexed": true,
          "internalType": "address",
          "name": "newOwner",
          "type": "address"
        }
      ],
      "name": "OwnershipTransferred",
      "type": "event"
    },
    {
      "anonymous": false,
      "inputs": [
        {
          "indexed": true,
          "internalType": "bytes32",
          "name": "role",
          "type": "bytes32"
        },
        {
          "indexed": true,
          "internalType": "bytes32",
          "name": "previousAdminRole",
          "type": "bytes32"
        },
        {
          "indexed": true,
          "internalType": "bytes32",
          "name": "newAdminRole",
          "type": "bytes32"
        }
      ],
      "name": "RoleAdminChanged",
      "type": "event"
    },
    {
      "anonymous": false,
      "inputs": [
        {
          "indexed": true,
          "internalType": "bytes32",
          "name": "role",
          "type": "bytes32"
        },
        {
          "indexed": true,
          "internalType": "address",
          "name": "account",
          "type": "address"
        },
        {
          "indexed": true,
          "internalType": "address",
          "name": "sender",
          "type": "address"
        }
      ],
      "name": "RoleGranted",
      "type": "event"
    },
    {
      "anonymous": false,
      "inputs": [
        {
          "indexed": true,
          "internalType": "bytes32",
          "name": "role",
          "type": "bytes32"
        },
        {
          "indexed": true,
          "internalType": "address",
          "name": "account",
          "type": "address"
        },
        {
          "indexed": true,
          "internalType": "address",
          "name": "sender",
          "type": "address"
        }
      ],
      "name": "RoleRevoked",
      "type": "event"
    },
    {
      "anonymous": false,
      "inputs": [
        {
          "indexed": true,
          "internalType": "address",
          "name": "from",
          "type": "address"
        },
        {
          "indexed": true,
          "internalType": "address",
          "name": "to",
          "type": "address"
        },
        {
          "indexed": false,
          "internalType": "uint256",
          "name": "value",
          "type": "uint256"
        }
      ],
      "name": "Transfer",
      "type": "event"
    },
    {
      "inputs": [],
      "name": "DAO_ROLE",
      "outputs": [
        {
          "internalType": "bytes32",
          "name": "",
          "type": "bytes32"
        }
      ],
      "stateMutability": "view",
      "type": "function"
    },
    {
      "inputs": [],
      "name": "DEFAULT_ADMIN_ROLE",
      "outputs": [
        {
          "internalType": "bytes32",
          "name": "",
          "type": "bytes32"
        }
      ],
      "stateMutability": "view",
      "type": "function"
    },
    {
      "inputs": [],
      "name": "DISTRIBUTOR_ROLE",
      "outputs": [
        {
          "internalType": "bytes32",
          "name": "",
          "type": "bytes32"
        }
      ],
      "stateMutability": "view",
      "type": "function"
    },
    {
      "inputs": [],
      "name": "MINTER_ROLE",
      "outputs": [
        {
          "internalType": "bytes32",
          "name": "",
          "type": "bytes32"
        }
      ],
      "stateMutability": "view",
      "type": "function"
    },
    {
      "inputs": [],
      "name": "OPERATOR_ROLE",
      "outputs": [
        {
          "internalType": "bytes32",
          "name": "",
          "type": "bytes32"
        }
      ],
      "stateMutability": "view",
      "type": "function"
    },
    {
      "inputs": [
        {
          "internalType": "address",
          "name": "owner",
          "type": "address"
        },
        {
          "internalType": "address",
          "name": "spender",
          "type": "address"
        }
      ],
      "name": "allowance",
      "outputs": [
        {
          "internalType": "uint256",
          "name": "",
          "type": "uint256"
        }
      ],
      "stateMutability": "view",
      "type": "function"
    },
    {
      "inputs": [
        {
          "internalType": "address",
          "name": "",
          "type": "address"
        },
        {
          "internalType": "address",
          "name": "",
          "type": "address"
        }
      ],
      "name": "allowances",
      "outputs": [
        {
          "internalType": "uint256",
          "name": "",
          "type": "uint256"
        }
      ],
      "stateMutability": "view",
      "type": "function"
    },
    {
      "inputs": [
        {
          "internalType": "address",
          "name": "spender",
          "type": "address"
        },
        {
          "internalType": "uint256",
          "name": "amount",
          "type": "uint256"
        }
      ],
      "name": "approve",
      "outputs": [
        {
          "internalType": "bool",
          "name": "",
          "type": "bool"
        }
      ],
      "stateMutability": "nonpayable",
      "type": "function"
    },
    {
      "inputs": [
        {
          "internalType": "address",
          "name": "account",
          "type": "address"
        }
      ],
      "name": "balanceOf",
      "outputs": [
        {
          "internalType": "uint256",
          "name": "",
          "type": "uint256"
        }
      ],
      "stateMutability": "view",
      "type": "function"
    },
    {
      "inputs": [
        {
          "internalType": "uint256",
          "name": "_amount",
          "type": "uint256"
        }
      ],
      "name": "burn",
      "outputs": [],
      "stateMutability": "nonpayable",
      "type": "function"
    },
    {
      "inputs": [
        {
          "internalType": "uint256",
          "name": "_amount",
          "type": "uint256"
        },
        {
          "internalType": "address",
          "name": "_from",
          "type": "address"
        }
      ],
      "name": "burnFrom",
      "outputs": [],
      "stateMutability": "nonpayable",
      "type": "function"
    },
    {
      "inputs": [],
      "name": "decimals",
      "outputs": [
        {
          "internalType": "uint8",
          "name": "",
          "type": "uint8"
        }
      ],
      "stateMutability": "view",
      "type": "function"
    },
    {
      "inputs": [
        {
          "internalType": "address",
          "name": "spender",
          "type": "address"
        },
        {
          "internalType": "uint256",
          "name": "subtractedValue",
          "type": "uint256"
        }
      ],
      "name": "decreaseAllowance",
      "outputs": [
        {
          "internalType": "bool",
          "name": "",
          "type": "bool"
        }
      ],
      "stateMutability": "nonpayable",
      "type": "function"
    },
    {
      "inputs": [
        {
          "internalType": "bytes32",
          "name": "role",
          "type": "bytes32"
        }
      ],
      "name": "getRoleAdmin",
      "outputs": [
        {
          "internalType": "bytes32",
          "name": "",
          "type": "bytes32"
        }
      ],
      "stateMutability": "view",
      "type": "function"
    },
    {
      "inputs": [
        {
          "internalType": "bytes32",
          "name": "role",
          "type": "bytes32"
        },
        {
          "internalType": "address",
          "name": "account",
          "type": "address"
        }
      ],
      "name": "grantRole",
      "outputs": [],
      "stateMutability": "nonpayable",
      "type": "function"
    },
    {
      "inputs": [
        {
          "internalType": "bytes32",
          "name": "role",
          "type": "bytes32"
        },
        {
          "internalType": "address",
          "name": "account",
          "type": "address"
        }
      ],
      "name": "hasRole",
      "outputs": [
        {
          "internalType": "bool",
          "name": "",
          "type": "bool"
        }
      ],
      "stateMutability": "view",
      "type": "function"
    },
    {
      "inputs": [
        {
          "internalType": "address",
          "name": "spender",
          "type": "address"
        },
        {
          "internalType": "uint256",
          "name": "addedValue",
          "type": "uint256"
        }
      ],
      "name": "increaseAllowance",
      "outputs": [
        {
          "internalType": "bool",
          "name": "",
          "type": "bool"
        }
      ],
      "stateMutability": "nonpayable",
      "type": "function"
    },
    {
      "inputs": [
        {
          "internalType": "address",
          "name": "_to",
          "type": "address"
        },
        {
          "internalType": "uint256",
          "name": "_amount",
          "type": "uint256"
        }
      ],
      "name": "mintTokensTo",
      "outputs": [],
      "stateMutability": "nonpayable",
      "type": "function"
    },
    {
      "inputs": [],
      "name": "name",
      "outputs": [
        {
          "internalType": "string",
          "name": "",
          "type": "string"
        }
      ],
      "stateMutability": "view",
      "type": "function"
    },
    {
      "inputs": [],
      "name": "owner",
      "outputs": [
        {
          "internalType": "address",
          "name": "",
          "type": "address"
        }
      ],
      "stateMutability": "view",
      "type": "function"
    },
    {
      "inputs": [],
      "name": "renounceOwnership",
      "outputs": [],
      "stateMutability": "nonpayable",
      "type": "function"
    },
    {
      "inputs": [
        {
          "internalType": "bytes32",
          "name": "role",
          "type": "bytes32"
        },
        {
          "internalType": "address",
          "name": "account",
          "type": "address"
        }
      ],
      "name": "renounceRole",
      "outputs": [],
      "stateMutability": "nonpayable",
      "type": "function"
    },
    {
      "inputs": [
        {
          "internalType": "bytes32",
          "name": "role",
          "type": "bytes32"
        },
        {
          "internalType": "address",
          "name": "account",
          "type": "address"
        }
      ],
      "name": "revokeRole",
      "outputs": [],
      "stateMutability": "nonpayable",
      "type": "function"
    },
    {
      "inputs": [
        {
          "internalType": "address",
          "name": "dao",
          "type": "address"
        }
      ],
      "name": "setupDaoRole",
      "outputs": [],
      "stateMutability": "nonpayable",
      "type": "function"
    },
    {
      "inputs": [
        {
          "internalType": "address",
          "name": "distributor",
          "type": "address"
        }
      ],
      "name": "setupDistributorRole",
      "outputs": [],
      "stateMutability": "nonpayable",
      "type": "function"
    },
    {
      "inputs": [
        {
          "internalType": "address",
          "name": "minter",
          "type": "address"
        }
      ],
      "name": "setupMinterRole",
      "outputs": [],
      "stateMutability": "nonpayable",
      "type": "function"
    },
    {
      "inputs": [
        {
          "internalType": "address",
          "name": "operator",
          "type": "address"
        }
      ],
      "name": "setupOperatorRole",
      "outputs": [],
      "stateMutability": "nonpayable",
      "type": "function"
    },
    {
      "inputs": [
        {
          "internalType": "bytes4",
          "name": "interfaceId",
          "type": "bytes4"
        }
      ],
      "name": "supportsInterface",
      "outputs": [
        {
          "internalType": "bool",
          "name": "",
          "type": "bool"
        }
      ],
      "stateMutability": "view",
      "type": "function"
    },
    {
      "inputs": [],
      "name": "symbol",
      "outputs": [
        {
          "internalType": "string",
          "name": "",
          "type": "string"
        }
      ],
      "stateMutability": "view",
      "type": "function"
    },
    {
      "inputs": [],
      "name": "totalSupply",
      "outputs": [
        {
          "internalType": "uint256",
          "name": "",
          "type": "uint256"
        }
      ],
      "stateMutability": "view",
      "type": "function"
    },
    {
      "inputs": [
        {
          "internalType": "address",
          "name": "to",
          "type": "address"
        },
        {
          "internalType": "uint256",
          "name": "amount",
          "type": "uint256"
        }
      ],
      "name": "transfer",
      "outputs": [
        {
          "internalType": "bool",
          "name": "",
          "type": "bool"
        }
      ],
      "stateMutability": "nonpayable",
      "type": "function"
    },
    {
      "inputs": [
        {
          "internalType": "address",
          "name": "from",
          "type": "address"
        },
        {
          "internalType": "address",
          "name": "to",
          "type": "address"
        },
        {
          "internalType": "uint256",
          "name": "amount",
          "type": "uint256"
        }
      ],
      "name": "transferFrom",
      "outputs": [
        {
          "internalType": "bool",
          "name": "",
          "type": "bool"
        }
      ],
      "stateMutability": "nonpayable",
      "type": "function"
    },
    {
      "inputs": [
        {
          "internalType": "address",
          "name": "newOwner",
          "type": "address"
        }
      ],
      "name": "transferOwnership",
      "outputs": [],
      "stateMutability": "nonpayable",
      "type": "function"
    }
  ],
  "bytecode": {
    "object": "0x60806040523480156200001157600080fd5b5060405162001d8438038062001d84833981016040819052620000349162000582565b6040518060400160405280601081526020016f2a30b632b73a102220a7902a37b5b2b760811b8152506040518060400160405280600681526020016515105311539560d21b81525062000096620000906200013f60201b60201c565b62000143565b8151620000ab906005906020850190620004dc565b508051620000c1906006906020840190620004dc565b50620000d39150600090508262000193565b620000e060003362000193565b620000fb60008051602062001d648339815191523362000193565b62000112816aa56fa5b99019a5c8000000620001a3565b6200012d60008051602062001d6483398151915233620001ff565b620001388162000283565b5062000617565b3390565b600080546001600160a01b038381166001600160a01b0319831681178455604051919092169283917f8be0079c531659141344cd1fd0a4f28419497f9722a3daafe3b4186f6b6457e09190a35050565b6200019f828262000306565b5050565b3360009081527f64e21244e91af723e1b962171ed4828dcecc0d7b89872e516a5db8266da80000602052604090205460ff16620001f357604051630766999960e41b815260040160405180910390fd5b6200019f82826200038e565b60008281526001602090815260408083206001600160a01b038516845290915290205460ff16156200019f5760008281526001602090815260408083206001600160a01b0385168085529252808320805460ff1916905551339285917ff6391f5c32d9c69d2a47ea670b442974b53935d1edc7fd64eb21e047a839171b9190a45050565b6200028d62000461565b6001600160a01b038116620002f85760405162461bcd60e51b815260206004820152602660248201527f4f776e61626c653a206e6577206f776e657220697320746865207a65726f206160448201526564647265737360d01b60648201526084015b60405180910390fd5b620003038162000143565b50565b60008281526001602090815260408083206001600160a01b038516845290915290205460ff166200019f5760008281526001602081815260408084206001600160a01b0386168086529252808420805460ff19169093179092559051339285917f2f8788117e7eff1d82e926ec794901d17c78024a50270940304540a733656f0d9190a45050565b6001600160a01b038216620003e65760405162461bcd60e51b815260206004820152601f60248201527f45524332303a206d696e7420746f20746865207a65726f2061646472657373006044820152606401620002ef565b620003f460008383620004bf565b8060046000828254620004089190620005b4565b90915550506001600160a01b0382166000818152600260209081526040808320805486019055518481527fddf252ad1be2c89b69c2b068fc378daa952ba7f163c4a11628f55a4df523b3ef910160405180910390a35050565b6000546001600160a01b03163314620004bd5760405162461bcd60e51b815260206004820181905260248201527f4f776e61626c653a2063616c6c6572206973206e6f7420746865206f776e65726044820152606401620002ef565b565b620004d7838383620004d760201b6200067d1760201c565b505050565b828054620004ea90620005db565b90600052602060002090601f0160209004810192826200050e576000855562000559565b82601f106200052957805160ff191683800117855562000559565b8280016001018555821562000559579182015b82811115620005595782518255916020019190600101906200053c565b50620005679291506200056b565b5090565b5b808211156200056757600081556001016200056c565b6000602082840312156200059557600080fd5b81516001600160a01b0381168114620005ad57600080fd5b9392505050565b60008219821115620005d657634e487b7160e01b600052601160045260246000fd5b500190565b600181811c90821680620005f057607f821691505b6020821081036200061157634e487b7160e01b600052602260045260246000fd5b50919050565b61173d80620006276000396000f3fe608060405234801561001057600080fd5b50600436106101fb5760003560e01c806372f650751161011a578063d5391393116100ad578063e9c265181161007c578063e9c2651814610462578063f0bd87cc14610489578063f2fde38b146104b0578063f5b541a6146104c3578063fcce8372146104ea57600080fd5b8063d539139314610402578063d547741f14610429578063dd62ed3e1461043c578063e88aca541461044f57600080fd5b806395d89b41116100e957806395d89b41146103cc578063a217fddf146103d4578063a457c2d7146103dc578063a9059cbb146103ef57600080fd5b806372f65075146103785780638a56f3ee1461038b5780638da5cb5b1461039e57806391d14854146103b957600080fd5b8063313ce567116101925780634cc92fe1116101615780634cc92fe11461030957806355b6ed5c1461031c57806370a0823114610347578063715018a61461037057600080fd5b8063313ce567146102c157806336568abe146102d057806339509351146102e357806342966c68146102f657600080fd5b806318160ddd116101ce57806318160ddd1461026557806323b872dd14610277578063248a9ca31461028a5780632f2ff15d146102ae57600080fd5b806301ffc9a7146102005780630549a1be1461022857806306fdde031461023d578063095ea7b314610252575b600080fd5b61021361020e36600461140b565b6104fd565b60405190151581526020015b60405180910390f35b61023b610236366004611451565b610534565b005b610245610589565b60405161021f91906114a7565b610213610260366004611451565b61061b565b6004545b60405190815260200161021f565b6102136102853660046114da565b610633565b610269610298366004611516565b6000908152600160208190526040909120015490565b61023b6102bc36600461152f565b610657565b6040516012815260200161021f565b61023b6102de36600461152f565b610682565b6102136102f1366004611451565b610701565b61023b610304366004611516565b610723565b61023b61031736600461155b565b61079a565b61026961032a366004611576565b600860209081526000928352604080842090915290825290205481565b61026961035536600461155b565b6001600160a01b031660009081526002602052604090205490565b61023b610825565b61023b61038636600461155b565b610839565b61023b61039936600461152f565b610893565b6000546040516001600160a01b03909116815260200161021f565b6102136103c736600461152f565b610919565b610245610944565b610269600081565b6102136103ea366004611451565b610953565b6102136103fd366004611451565b6109ce565b6102697f9f2df0fed2c77648de5860a4cc508cd0818c85b8b8a1ab4ceeef8d981c8956a681565b61023b61043736600461152f565b6109dc565b61026961044a366004611576565b610a02565b61023b61045d36600461155b565b610a2d565b6102697f3b5d4cc60d3ec3516ee8ae083bd60934f6eb2a6c54b1229985c41bfb092b260381565b6102697ffbd454f36a7e1a388bd6fc3ab10d434aa4578f811acbbcf33afb1c697486313c81565b61023b6104be36600461155b565b610a5f565b6102697f97667070c54ef182b0f5858b034beac1b6f3089aa2d3188bb1e8929f4fa9b92981565b61023b6104f836600461155b565b610ad5565b60006001600160e01b03198216637965db0b60e01b148061052e57506301ffc9a760e01b6001600160e01b03198316145b92915050565b61055e7f9f2df0fed2c77648de5860a4cc508cd0818c85b8b8a1ab4ceeef8d981c8956a633610919565b61057b57604051630766999960e41b815260040160405180910390fd5b6105858282610b2f565b5050565b606060058054610598906115a0565b80601f01602080910402602001604051908101604052809291908181526020018280546105c4906115a0565b80156106115780601f106105e657610100808354040283529160200191610611565b820191906000526020600020905b8154815290600101906020018083116105f457829003601f168201915b5050505050905090565b600033610629818585610bf0565b5060019392505050565b600033610641858285610d14565b61064c858585610d8e565b506001949350505050565b6000828152600160208190526040909120015461067381610f39565b61067d8383610f43565b505050565b6001600160a01b03811633146106f75760405162461bcd60e51b815260206004820152602f60248201527f416363657373436f6e74726f6c3a2063616e206f6e6c792072656e6f756e636560448201526e103937b632b9903337b91039b2b63360891b60648201526084015b60405180910390fd5b6105858282610fae565b6000336106298185856107148383610a02565b61071e91906115f0565b610bf0565b336107415760405163d92e233d60e01b815260040160405180910390fd5b33600090815260076020526040812080548392906107699084906001600160601b0316611608565b92506101000a8154816001600160601b0302191690836001600160601b031602179055506107973382611015565b50565b6107a2611149565b6107cc7f97667070c54ef182b0f5858b034beac1b6f3089aa2d3188bb1e8929f4fa9b92933610919565b806107dd57506107dd600033610919565b156107fb57604051630766999960e41b815260040160405180910390fd5b6107977ffbd454f36a7e1a388bd6fc3ab10d434aa4578f811acbbcf33afb1c697486313c826111a3565b61082d611149565b61083760006111ad565b565b610841611149565b61084c600033610919565b61086957604051630766999960e41b815260040160405180910390fd5b6107977f97667070c54ef182b0f5858b034beac1b6f3089aa2d3188bb1e8929f4fa9b929826111a3565b6001600160a01b0381166108ba5760405163d92e233d60e01b815260040160405180910390fd5b6001600160a01b038116600090815260076020526040812080548492906108eb9084906001600160601b0316611608565b92506101000a8154816001600160601b0302191690836001600160601b031602179055506105858183611015565b60009182526001602090815260408084206001600160a01b0393909316845291905290205460ff1690565b606060068054610598906115a0565b600033816109618286610a02565b9050838110156109c15760405162461bcd60e51b815260206004820152602560248201527f45524332303a2064656372656173656420616c6c6f77616e63652062656c6f77604482015264207a65726f60d81b60648201526084016106ee565b61064c8286868403610bf0565b600033610629818585610d8e565b600082815260016020819052604090912001546109f881610f39565b61067d8383610fae565b6001600160a01b03918216600090815260036020908152604080832093909416825291909152205490565b610a35611149565b6107977f3b5d4cc60d3ec3516ee8ae083bd60934f6eb2a6c54b1229985c41bfb092b2603826111a3565b610a67611149565b6001600160a01b038116610acc5760405162461bcd60e51b815260206004820152602660248201527f4f776e61626c653a206e6577206f776e657220697320746865207a65726f206160448201526564647265737360d01b60648201526084016106ee565b610797816111ad565b610add611149565b610ae8600033610919565b610b0557604051630766999960e41b815260040160405180910390fd5b6107977f9f2df0fed2c77648de5860a4cc508cd0818c85b8b8a1ab4ceeef8d981c8956a6826111a3565b6001600160a01b038216610b855760405162461bcd60e51b815260206004820152601f60248201527f45524332303a206d696e7420746f20746865207a65726f20616464726573730060448201526064016106ee565b8060046000828254610b9791906115f0565b90915550506001600160a01b0382166000818152600260209081526040808320805486019055518481527fddf252ad1be2c89b69c2b068fc378daa952ba7f163c4a11628f55a4df523b3ef910160405180910390a35050565b6001600160a01b038316610c525760405162461bcd60e51b8152602060048201526024808201527f45524332303a20617070726f76652066726f6d20746865207a65726f206164646044820152637265737360e01b60648201526084016106ee565b6001600160a01b038216610cb35760405162461bcd60e51b815260206004820152602260248201527f45524332303a20617070726f766520746f20746865207a65726f206164647265604482015261737360f01b60648201526084016106ee565b6001600160a01b0383811660008181526003602090815260408083209487168084529482529182902085905590518481527f8c5be1e5ebec7d5bd14f71427d1e84f3dd0314c0f7b2291e5b200ac8c7c3b925910160405180910390a3505050565b6000610d208484610a02565b90506000198114610d885781811015610d7b5760405162461bcd60e51b815260206004820152601d60248201527f45524332303a20696e73756666696369656e7420616c6c6f77616e636500000060448201526064016106ee565b610d888484848403610bf0565b50505050565b6001600160a01b038316610df25760405162461bcd60e51b815260206004820152602560248201527f45524332303a207472616e736665722066726f6d20746865207a65726f206164604482015264647265737360d81b60648201526084016106ee565b6001600160a01b038216610e545760405162461bcd60e51b815260206004820152602360248201527f45524332303a207472616e7366657220746f20746865207a65726f206164647260448201526265737360e81b60648201526084016106ee565b6001600160a01b03831660009081526002602052604090205481811015610ecc5760405162461bcd60e51b815260206004820152602660248201527f45524332303a207472616e7366657220616d6f756e7420657863656564732062604482015265616c616e636560d01b60648201526084016106ee565b6001600160a01b0380851660008181526002602052604080822086860390559286168082529083902080548601905591517fddf252ad1be2c89b69c2b068fc378daa952ba7f163c4a11628f55a4df523b3ef90610f2c9086815260200190565b60405180910390a3610d88565b61079781336111fd565b610f4d8282610919565b6105855760008281526001602081815260408084206001600160a01b0386168086529252808420805460ff19169093179092559051339285917f2f8788117e7eff1d82e926ec794901d17c78024a50270940304540a733656f0d9190a45050565b610fb88282610919565b156105855760008281526001602090815260408083206001600160a01b0385168085529252808320805460ff1916905551339285917ff6391f5c32d9c69d2a47ea670b442974b53935d1edc7fd64eb21e047a839171b9190a45050565b6001600160a01b0382166110755760405162461bcd60e51b815260206004820152602160248201527f45524332303a206275726e2066726f6d20746865207a65726f206164647265736044820152607360f81b60648201526084016106ee565b6001600160a01b038216600090815260026020526040902054818110156110e95760405162461bcd60e51b815260206004820152602260248201527f45524332303a206275726e20616d6f756e7420657863656564732062616c616e604482015261636560f01b60648201526084016106ee565b6001600160a01b03831660008181526002602090815260408083208686039055600480548790039055518581529192917fddf252ad1be2c89b69c2b068fc378daa952ba7f163c4a11628f55a4df523b3ef910160405180910390a3505050565b6000546001600160a01b031633146108375760405162461bcd60e51b815260206004820181905260248201527f4f776e61626c653a2063616c6c6572206973206e6f7420746865206f776e657260448201526064016106ee565b6105858282610f43565b600080546001600160a01b038381166001600160a01b0319831681178455604051919092169283917f8be0079c531659141344cd1fd0a4f28419497f9722a3daafe3b4186f6b6457e09190a35050565b6112078282610919565b6105855761121481611256565b61121f836020611268565b604051602001611230929190611630565b60408051601f198184030181529082905262461bcd60e51b82526106ee916004016114a7565b606061052e6001600160a01b03831660145b606060006112778360026116a5565b6112829060026115f0565b67ffffffffffffffff81111561129a5761129a6116c4565b6040519080825280601f01601f1916602001820160405280156112c4576020820181803683370190505b509050600360fc1b816000815181106112df576112df6116da565b60200101906001600160f81b031916908160001a905350600f60fb1b8160018151811061130e5761130e6116da565b60200101906001600160f81b031916908160001a90535060006113328460026116a5565b61133d9060016115f0565b90505b60018111156113b5576f181899199a1a9b1b9c1cb0b131b232b360811b85600f1660108110611371576113716116da565b1a60f81b828281518110611387576113876116da565b60200101906001600160f81b031916908160001a90535060049490941c936113ae816116f0565b9050611340565b5083156114045760405162461bcd60e51b815260206004820181905260248201527f537472696e67733a20686578206c656e67746820696e73756666696369656e7460448201526064016106ee565b9392505050565b60006020828403121561141d57600080fd5b81356001600160e01b03198116811461140457600080fd5b80356001600160a01b038116811461144c57600080fd5b919050565b6000806040838503121561146457600080fd5b61146d83611435565b946020939093013593505050565b60005b8381101561149657818101518382015260200161147e565b83811115610d885750506000910152565b60208152600082518060208401526114c681604085016020870161147b565b601f01601f19169190910160400192915050565b6000806000606084860312156114ef57600080fd5b6114f884611435565b925061150660208501611435565b9150604084013590509250925092565b60006020828403121561152857600080fd5b5035919050565b6000806040838503121561154257600080fd5b8235915061155260208401611435565b90509250929050565b60006020828403121561156d57600080fd5b61140482611435565b6000806040838503121561158957600080fd5b61159283611435565b915061155260208401611435565b600181811c908216806115b457607f821691505b6020821081036115d457634e487b7160e01b600052602260045260246000fd5b50919050565b634e487b7160e01b600052601160045260246000fd5b60008219821115611603576116036115da565b500190565b60006001600160601b0383811690831681811015611628576116286115da565b039392505050565b7f416363657373436f6e74726f6c3a206163636f756e742000000000000000000081526000835161166881601785016020880161147b565b7001034b99036b4b9b9b4b733903937b6329607d1b601791840191820152835161169981602884016020880161147b565b01602801949350505050565b60008160001904831182151516156116bf576116bf6115da565b500290565b634e487b7160e01b600052604160045260246000fd5b634e487b7160e01b600052603260045260246000fd5b6000816116ff576116ff6115da565b50600019019056fea26469706673582212207fe357a1fc30d62f71c86b98a4ae18dfb674e966dab447cfb282ad3a730a412264736f6c634300080d00339f2df0fed2c77648de5860a4cc508cd0818c85b8b8a1ab4ceeef8d981c8956a6",
    "linkReferences": {}
  }
}