{
  "abi": [
    {
      "inputs": [
        {
          "internalType": "address",
          "name": "_owner",
          "type": "address"
        },
        {
          "internalType": "address",
          "name": "_tDaoToken",
          "type": "address"
        }
      ],
      "stateMutability": "nonpayable",
      "type": "constructor"
    },
    {
      "anonymous": false,
      "inputs": [
        {
          "indexed": true,
          "internalType": "address",
          "name": "owner",
          "type": "address"
        },
        {
          "indexed": true,
          "internalType": "address",
          "name": "approved",
          "type": "address"
        },
        {
          "indexed": true,
          "internalType": "uint256",
          "name": "tokenId",
          "type": "uint256"
        }
      ],
      "name": "Approval",
      "type": "event"
    },
    {
      "anonymous": false,
      "inputs": [
        {
          "indexed": true,
          "internalType": "address",
          "name": "owner",
          "type": "address"
        },
        {
          "indexed": true,
          "internalType": "address",
          "name": "operator",
          "type": "address"
        },
        {
          "indexed": false,
          "internalType": "bool",
          "name": "approved",
          "type": "bool"
        }
      ],
      "name": "ApprovalForAll",
      "type": "event"
    },
    {
      "anonymous": false,
      "inputs": [
        {
          "indexed": true,
          "internalType": "address",
          "name": "previousOwner",
          "type": "address"
        },
        {
          "indexed": true,
          "internalType": "address",
          "name": "newOwner",
          "type": "address"
        }
      ],
      "name": "OwnershipTransferred",
      "type": "event"
    },
    {
      "anonymous": false,
      "inputs": [
        {
          "indexed": true,
          "internalType": "address",
          "name": "from",
          "type": "address"
        },
        {
          "indexed": true,
          "internalType": "address",
          "name": "to",
          "type": "address"
        },
        {
          "indexed": true,
          "internalType": "uint256",
          "name": "tokenId",
          "type": "uint256"
        }
      ],
      "name": "Transfer",
      "type": "event"
    },
    {
      "inputs": [],
      "name": "_articleIds",
      "outputs": [
        {
          "internalType": "uint256",
          "name": "_value",
          "type": "uint256"
        }
      ],
      "stateMutability": "view",
      "type": "function"
    },
    {
      "inputs": [],
      "name": "_authorIds",
      "outputs": [
        {
          "internalType": "uint256",
          "name": "_value",
          "type": "uint256"
        }
      ],
      "stateMutability": "view",
      "type": "function"
    },
    {
      "inputs": [
        {
          "internalType": "address",
          "name": "authorAddress",
          "type": "address"
        },
        {
          "internalType": "string",
          "name": "arweaveHash",
          "type": "string"
        },
        {
          "internalType": "string",
          "name": "metadataPtr",
          "type": "string"
        },
        {
          "internalType": "uint256",
          "name": "paid",
          "type": "uint256"
        }
      ],
      "name": "addArticle",
      "outputs": [
        {
          "internalType": "uint256",
          "name": "",
          "type": "uint256"
        }
      ],
      "stateMutability": "nonpayable",
      "type": "function"
    },
    {
      "inputs": [
        {
          "internalType": "address",
          "name": "authorAddress",
          "type": "address"
        },
        {
          "internalType": "uint256",
          "name": "articleId",
          "type": "uint256"
        },
        {
          "internalType": "string",
          "name": "profileHash",
          "type": "string"
        }
      ],
      "name": "addAuthor",
      "outputs": [
        {
          "internalType": "uint256",
          "name": "",
          "type": "uint256"
        }
      ],
      "stateMutability": "nonpayable",
      "type": "function"
    },
    {
      "inputs": [
        {
          "internalType": "address",
          "name": "to",
          "type": "address"
        },
        {
          "internalType": "uint256",
          "name": "tokenId",
          "type": "uint256"
        }
      ],
      "name": "approve",
      "outputs": [],
      "stateMutability": "nonpayable",
      "type": "function"
    },
    {
      "inputs": [
        {
          "internalType": "string",
          "name": "",
          "type": "string"
        }
      ],
      "name": "articles",
      "outputs": [
        {
          "internalType": "uint256",
          "name": "id",
          "type": "uint256"
        },
        {
          "internalType": "address",
          "name": "author",
          "type": "address"
        },
        {
          "internalType": "string",
          "name": "metadataPtr",
          "type": "string"
        },
        {
          "internalType": "string",
          "name": "arweaveHash",
          "type": "string"
        },
        {
          "internalType": "uint256",
          "name": "tokenId",
          "type": "uint256"
        },
        {
          "internalType": "uint256",
          "name": "paid",
          "type": "uint256"
        }
      ],
      "stateMutability": "view",
      "type": "function"
    },
    {
      "inputs": [
        {
          "internalType": "address",
          "name": "",
          "type": "address"
        }
      ],
      "name": "authors",
      "outputs": [
        {
          "internalType": "address",
          "name": "authorAddress",
          "type": "address"
        },
        {
          "internalType": "uint256",
          "name": "id",
          "type": "uint256"
        },
        {
          "internalType": "string",
          "name": "arweaveProfileHash",
          "type": "string"
        }
      ],
      "stateMutability": "view",
      "type": "function"
    },
    {
      "inputs": [
        {
          "internalType": "address",
          "name": "owner",
          "type": "address"
        }
      ],
      "name": "balanceOf",
      "outputs": [
        {
          "internalType": "uint256",
          "name": "",
          "type": "uint256"
        }
      ],
      "stateMutability": "view",
      "type": "function"
    },
    {
      "inputs": [],
      "name": "contractURI",
      "outputs": [
        {
          "internalType": "string",
          "name": "",
          "type": "string"
        }
      ],
      "stateMutability": "pure",
      "type": "function"
    },
    {
      "inputs": [
        {
          "internalType": "uint256",
          "name": "tokenId",
          "type": "uint256"
        }
      ],
      "name": "getApproved",
      "outputs": [
        {
          "internalType": "address",
          "name": "",
          "type": "address"
        }
      ],
      "stateMutability": "view",
      "type": "function"
    },
    {
      "inputs": [
        {
          "internalType": "string",
          "name": "arweaveHash",
          "type": "string"
        }
      ],
      "name": "getArticleByHash",
      "outputs": [
        {
          "components": [
            {
              "internalType": "uint256",
              "name": "id",
              "type": "uint256"
            },
            {
              "internalType": "address",
              "name": "author",
              "type": "address"
            },
            {
              "internalType": "string",
              "name": "metadataPtr",
              "type": "string"
            },
            {
              "internalType": "string",
              "name": "arweaveHash",
              "type": "string"
            },
            {
              "internalType": "uint256",
              "name": "tokenId",
              "type": "uint256"
            },
            {
              "internalType": "uint256",
              "name": "paid",
              "type": "uint256"
            }
          ],
          "internalType": "struct ArticleEntity.Article",
          "name": "",
          "type": "tuple"
        }
      ],
      "stateMutability": "view",
      "type": "function"
    },
    {
      "inputs": [
        {
          "internalType": "uint256",
          "name": "articleId",
          "type": "uint256"
        }
      ],
      "name": "getArticleById",
      "outputs": [
        {
          "components": [
            {
              "internalType": "uint256",
              "name": "id",
              "type": "uint256"
            },
            {
              "internalType": "address",
              "name": "author",
              "type": "address"
            },
            {
              "internalType": "string",
              "name": "metadataPtr",
              "type": "string"
            },
            {
              "internalType": "string",
              "name": "arweaveHash",
              "type": "string"
            },
            {
              "internalType": "uint256",
              "name": "tokenId",
              "type": "uint256"
            },
            {
              "internalType": "uint256",
              "name": "paid",
              "type": "uint256"
            }
          ],
          "internalType": "struct ArticleEntity.Article",
          "name": "",
          "type": "tuple"
        }
      ],
      "stateMutability": "view",
      "type": "function"
    },
    {
      "inputs": [
        {
          "internalType": "address",
          "name": "authorAddress",
          "type": "address"
        }
      ],
      "name": "getAuthor",
      "outputs": [
        {
          "internalType": "address",
          "name": "",
          "type": "address"
        },
        {
          "internalType": "uint256",
          "name": "",
          "type": "uint256"
        },
        {
          "internalType": "string",
          "name": "",
          "type": "string"
        }
      ],
      "stateMutability": "view",
      "type": "function"
    },
    {
      "inputs": [
        {
          "internalType": "uint256",
          "name": "",
          "type": "uint256"
        }
      ],
      "name": "idToAuthor",
      "outputs": [
        {
          "internalType": "address",
          "name": "authorAddress",
          "type": "address"
        },
        {
          "internalType": "uint256",
          "name": "id",
          "type": "uint256"
        },
        {
          "internalType": "string",
          "name": "arweaveProfileHash",
          "type": "string"
        }
      ],
      "stateMutability": "view",
      "type": "function"
    },
    {
      "inputs": [
        {
          "internalType": "address",
          "name": "owner",
          "type": "address"
        },
        {
          "internalType": "address",
          "name": "operator",
          "type": "address"
        }
      ],
      "name": "isApprovedForAll",
      "outputs": [
        {
          "internalType": "bool",
          "name": "",
          "type": "bool"
        }
      ],
      "stateMutability": "view",
      "type": "function"
    },
    {
      "inputs": [
        {
          "internalType": "address",
          "name": "ownerAddress",
          "type": "address"
        },
        {
          "internalType": "string",
          "name": "arweaveHash",
          "type": "string"
        },
        {
          "internalType": "string",
          "name": "metadataPtr",
          "type": "string"
        },
        {
          "internalType": "uint256",
          "name": "amount",
          "type": "uint256"
        }
      ],
      "name": "mintNFTForArticle",
      "outputs": [
        {
          "internalType": "uint256",
          "name": "",
          "type": "uint256"
        }
      ],
      "stateMutability": "nonpayable",
      "type": "function"
    },
    {
      "inputs": [],
      "name": "name",
      "outputs": [
        {
          "internalType": "string",
          "name": "",
          "type": "string"
        }
      ],
      "stateMutability": "view",
      "type": "function"
    },
    {
      "inputs": [],
      "name": "owner",
      "outputs": [
        {
          "internalType": "address",
          "name": "",
          "type": "address"
        }
      ],
      "stateMutability": "view",
      "type": "function"
    },
    {
      "inputs": [
        {
          "internalType": "uint256",
          "name": "tokenId",
          "type": "uint256"
        }
      ],
      "name": "ownerOf",
      "outputs": [
        {
          "internalType": "address",
          "name": "",
          "type": "address"
        }
      ],
      "stateMutability": "view",
      "type": "function"
    },
    {
      "inputs": [],
      "name": "renounceOwnership",
      "outputs": [],
      "stateMutability": "nonpayable",
      "type": "function"
    },
    {
      "inputs": [
        {
          "internalType": "address",
          "name": "from",
          "type": "address"
        },
        {
          "internalType": "address",
          "name": "to",
          "type": "address"
        },
        {
          "internalType": "uint256",
          "name": "tokenId",
          "type": "uint256"
        }
      ],
      "name": "safeTransferFrom",
      "outputs": [],
      "stateMutability": "nonpayable",
      "type": "function"
    },
    {
      "inputs": [
        {
          "internalType": "address",
          "name": "from",
          "type": "address"
        },
        {
          "internalType": "address",
          "name": "to",
          "type": "address"
        },
        {
          "internalType": "uint256",
          "name": "tokenId",
          "type": "uint256"
        },
        {
          "internalType": "bytes",
          "name": "data",
          "type": "bytes"
        }
      ],
      "name": "safeTransferFrom",
      "outputs": [],
      "stateMutability": "nonpayable",
      "type": "function"
    },
    {
      "inputs": [
        {
          "internalType": "address",
          "name": "operator",
          "type": "address"
        },
        {
          "internalType": "bool",
          "name": "approved",
          "type": "bool"
        }
      ],
      "name": "setApprovalForAll",
      "outputs": [],
      "stateMutability": "nonpayable",
      "type": "function"
    },
    {
      "inputs": [
        {
          "internalType": "uint256",
          "name": "_tokenId",
          "type": "uint256"
        },
        {
          "internalType": "string",
          "name": "_tokenURI",
          "type": "string"
        }
      ],
      "name": "setTokenURI",
      "outputs": [],
      "stateMutability": "nonpayable",
      "type": "function"
    },
    {
      "inputs": [
        {
          "internalType": "bytes4",
          "name": "interfaceId",
          "type": "bytes4"
        }
      ],
      "name": "supportsInterface",
      "outputs": [
        {
          "internalType": "bool",
          "name": "",
          "type": "bool"
        }
      ],
      "stateMutability": "view",
      "type": "function"
    },
    {
      "inputs": [],
      "name": "symbol",
      "outputs": [
        {
          "internalType": "string",
          "name": "",
          "type": "string"
        }
      ],
      "stateMutability": "view",
      "type": "function"
    },
    {
      "inputs": [],
      "name": "tDaoTokenAddress",
      "outputs": [
        {
          "internalType": "address",
          "name": "",
          "type": "address"
        }
      ],
      "stateMutability": "view",
      "type": "function"
    },
    {
      "inputs": [
        {
          "internalType": "uint256",
          "name": "tokenId",
          "type": "uint256"
        }
      ],
      "name": "tokenURI",
      "outputs": [
        {
          "internalType": "string",
          "name": "",
          "type": "string"
        }
      ],
      "stateMutability": "view",
      "type": "function"
    },
    {
      "inputs": [
        {
          "internalType": "address",
          "name": "from",
          "type": "address"
        },
        {
          "internalType": "address",
          "name": "to",
          "type": "address"
        },
        {
          "internalType": "uint256",
          "name": "tokenId",
          "type": "uint256"
        }
      ],
      "name": "transferFrom",
      "outputs": [],
      "stateMutability": "nonpayable",
      "type": "function"
    },
    {
      "inputs": [
        {
          "internalType": "address",
          "name": "newOwner",
          "type": "address"
        }
      ],
      "name": "transferOwnership",
      "outputs": [],
      "stateMutability": "nonpayable",
      "type": "function"
    },
    {
      "inputs": [],
      "name": "treasury",
      "outputs": [
        {
          "internalType": "address",
          "name": "",
          "type": "address"
        }
      ],
      "stateMutability": "view",
      "type": "function"
    },
    {
      "inputs": [
        {
          "internalType": "uint256",
          "name": "articleId",
          "type": "uint256"
        },
        {
          "internalType": "address",
          "name": "authorAddress",
          "type": "address"
        }
      ],
      "name": "updateArticleAuthorAddress",
      "outputs": [],
      "stateMutability": "nonpayable",
      "type": "function"
    },
    {
      "inputs": [
        {
          "internalType": "uint256",
          "name": "articleId",
          "type": "uint256"
        },
        {
          "internalType": "string",
          "name": "newPointer",
          "type": "string"
        }
      ],
      "name": "updateArticleMetadata",
      "outputs": [],
      "stateMutability": "nonpayable",
      "type": "function"
    },
    {
      "inputs": [
        {
          "internalType": "address",
          "name": "authorAddress",
          "type": "address"
        }
      ],
      "name": "updateAuthor",
      "outputs": [],
      "stateMutability": "nonpayable",
      "type": "function"
    }
  ],
  "bytecode": {
    "object": "0x60806040523480156200001157600080fd5b50604051620027443803806200274483398101604081905262000034916200021e565b6040518060400160405280601181526020017015185b195b9d08111053c8125408139195607a1b8152506040518060400160405280600a81526020016915111053cb525413919560b21b8152506200009b620000956200010760201b60201c565b6200010b565b8151620000b09060019060208501906200015b565b508051620000c69060029060208401906200015b565b5050601280546001600160a01b0384166001600160a01b0319918216811790925560118054909116909117905550620000ff826200010b565b505062000292565b3390565b600080546001600160a01b038381166001600160a01b0319831681178455604051919092169283917f8be0079c531659141344cd1fd0a4f28419497f9722a3daafe3b4186f6b6457e09190a35050565b828054620001699062000256565b90600052602060002090601f0160209004810192826200018d5760008555620001d8565b82601f10620001a857805160ff1916838001178555620001d8565b82800160010185558215620001d8579182015b82811115620001d8578251825591602001919060010190620001bb565b50620001e6929150620001ea565b5090565b5b80821115620001e65760008155600101620001eb565b80516001600160a01b03811681146200021957600080fd5b919050565b600080604083850312156200023257600080fd5b6200023d8362000201565b91506200024d6020840162000201565b90509250929050565b600181811c908216806200026b57607f821691505b6020821081036200028c57634e487b7160e01b600052602260045260246000fd5b50919050565b6124a280620002a26000396000f3fe608060405234801561001057600080fd5b50600436106102065760003560e01c80636fd00fc81161011a57806395de6736116100ad578063bf9c50011161007c578063bf9c500114610483578063c87b56dd14610496578063e8a3d485146104a9578063e985e9c5146104bd578063f2fde38b146104f957600080fd5b806395de673614610437578063a22cb4651461044a578063ada063a61461045d578063b88d4fde1461047057600080fd5b80637f87cea2116100e95780637f87cea2146103f85780638da5cb5b1461040b57806395c2cbb81461041c57806395d89b411461042f57600080fd5b80636fd00fc81461039857806370a08231146103b8578063715018a6146103cb5780637c702b8d146103d357600080fd5b806323b872dd1161019d57806342842e0e1161016c57806342842e0e146103395780634d7564b21461034c5780635de55d691461035f57806361d027b3146103725780636352211e1461038557600080fd5b806323b872dd146102e857806331bb3241146102fb5780633801ba261461030e5780633e0a01121461032f57600080fd5b80630a6e81e4116101d95780630a6e81e4146102885780630ab30093146102a05780630b2a6ce8146102c2578063162094c4146102d557600080fd5b806301ffc9a71461020b57806306fdde0314610233578063081812fc14610248578063095ea7b314610273575b600080fd5b61021e610219366004611d54565b61050c565b60405190151581526020015b60405180910390f35b61023b61055e565b60405161022a9190611dc9565b61025b610256366004611ddc565b6105f0565b6040516001600160a01b03909116815260200161022a565b610286610281366004611e11565b610617565b005b6008546102929081565b60405190815260200161022a565b6102b36102ae366004611e3b565b610731565b60405161022a93929190611e56565b6102926102d0366004611f32565b6107fe565b6102866102e3366004611f89565b61085e565b6102866102f6366004611fd0565b610874565b6102b3610309366004611ddc565b6108a5565b61028661031c366004611e3b565b6001600160a01b0316600052600d602052565b600b546102929081565b610286610347366004611fd0565b61095a565b61028661035a366004611f89565b610975565b61028661036d36600461200c565b6109b8565b60105461025b906001600160a01b031681565b61025b610393366004611ddc565b610a03565b6103ab6103a6366004612038565b610a63565b60405161022a919061206d565b6102926103c6366004611e3b565b610bef565b610286610c75565b6103e66103e1366004612038565b610c89565b60405161022a969594939291906120e3565b610292610406366004612135565b610de3565b6000546001600160a01b031661025b565b61029261042a366004612135565b610f8a565b61023b611013565b6103ab610445366004611ddc565b611022565b6102866104583660046121b1565b61109f565b60115461025b906001600160a01b031681565b61028661047e3660046121ed565b6110aa565b6102b3610491366004611e3b565b6110dc565b61023b6104a4366004611ddc565b61110e565b60408051602081019091526000815261023b565b61021e6104cb366004612269565b6001600160a01b03918216600090815260066020908152604080832093909416825291909152205460ff1690565b610286610507366004611e3b565b611216565b60006001600160e01b031982166380ac58cd60e01b148061053d57506001600160e01b03198216635b5e139f60e01b145b8061055857506301ffc9a760e01b6001600160e01b03198316145b92915050565b60606001805461056d90612293565b80601f016020809104026020016040519081016040528092919081815260200182805461059990612293565b80156105e65780601f106105bb576101008083540402835291602001916105e6565b820191906000526020600020905b8154815290600101906020018083116105c957829003601f168201915b5050505050905090565b60006105fb8261128f565b506000908152600560205260409020546001600160a01b031690565b600061062282610a03565b9050806001600160a01b0316836001600160a01b0316036106945760405162461bcd60e51b815260206004820152602160248201527f4552433732313a20617070726f76616c20746f2063757272656e74206f776e656044820152603960f91b60648201526084015b60405180910390fd5b336001600160a01b03821614806106b057506106b081336104cb565b6107225760405162461bcd60e51b815260206004820152603d60248201527f4552433732313a20617070726f76652063616c6c6572206973206e6f7420746f60448201527f6b656e206f776e6572206f7220617070726f76656420666f7220616c6c000000606482015260840161068b565b61072c83836112ee565b505050565b6001600160a01b038082166000908152600d6020526040812080546001820154600290920180549394859460609493909116929190819061077190612293565b80601f016020809104026020016040519081016040528092919081815260200182805461079d90612293565b80156107ea5780601f106107bf576101008083540402835291602001916107ea565b820191906000526020600020905b8154815290600101906020018083116107cd57829003601f168201915b505050505090509250925092509193909250565b600061080e600b80546001019055565b6000610819600b5490565b6001600160a01b0386166000908152600d602090815260409091206001810183905585519293509161085391600284019190870190611beb565b509095945050505050565b61086661135c565b61087082826113b6565b5050565b61087e3382611450565b61089a5760405162461bcd60e51b815260040161068b906122cd565b61072c8383836114ce565b600e602052600090815260409020805460018201546002830180546001600160a01b039093169391926108d790612293565b80601f016020809104026020016040519081016040528092919081815260200182805461090390612293565b80156109505780601f1061092557610100808354040283529160200191610950565b820191906000526020600020905b81548152906001019060200180831161093357829003601f168201915b5050505050905083565b61072c838383604051806020016040528060008152506110aa565b60006009838154811061098a5761098a61231a565b90600052602060002090600602019050818160020190805190602001906109b2929190611beb565b50505050565b6000600983815481106109cd576109cd61231a565b6000918252602090912060069091020160010180546001600160a01b0319166001600160a01b0393909316929092179091555050565b6000818152600360205260408120546001600160a01b0316806105585760405162461bcd60e51b8152602060048201526018602482015277115490cdcc8c4e881a5b9d985b1a59081d1bdad95b88125160421b604482015260640161068b565b610a6b611c6f565b600a82604051610a7b9190612330565b90815260408051918290036020908101832060c0840183528054845260018101546001600160a01b0316918401919091526002810180549192840191610ac090612293565b80601f0160208091040260200160405190810160405280929190818152602001828054610aec90612293565b8015610b395780601f10610b0e57610100808354040283529160200191610b39565b820191906000526020600020905b815481529060010190602001808311610b1c57829003601f168201915b50505050508152602001600382018054610b5290612293565b80601f0160208091040260200160405190810160405280929190818152602001828054610b7e90612293565b8015610bcb5780601f10610ba057610100808354040283529160200191610bcb565b820191906000526020600020905b815481529060010190602001808311610bae57829003601f168201915b50505050508152602001600482015481526020016005820154815250509050919050565b60006001600160a01b038216610c595760405162461bcd60e51b815260206004820152602960248201527f4552433732313a2061646472657373207a65726f206973206e6f7420612076616044820152683634b21037bbb732b960b91b606482015260840161068b565b506001600160a01b031660009081526004602052604090205490565b610c7d61135c565b610c876000611632565b565b8051602081830181018051600a8252928201919093012091528054600182015460028301805492936001600160a01b0390921692610cc690612293565b80601f0160208091040260200160405190810160405280929190818152602001828054610cf290612293565b8015610d3f5780601f10610d1457610100808354040283529160200191610d3f565b820191906000526020600020905b815481529060010190602001808311610d2257829003601f168201915b505050505090806003018054610d5490612293565b80601f0160208091040260200160405190810160405280929190818152602001828054610d8090612293565b8015610dcd5780601f10610da257610100808354040283529160200191610dcd565b820191906000526020600020905b815481529060010190602001808311610db057829003601f168201915b5050505050908060040154908060050154905086565b6000610df3600f80546001019055565b600080610e0287878787610f8a565b90506000600a87604051610e169190612330565b908152604051602091819003820190206001810180546001600160a01b0319166001600160a01b038c161790558751909250610e5a91600284019190890190611beb565b50600581018590556001600160a01b038089166000818152600d60205260409020805490921614610eb657610eb389846040518060400160405280600b81526020016a0e0e4deccd2d8ca90c2e6d60ab1b8152506107fe565b93505b60018082015460038301805480840182556000918252602090912085546006909202019081558483015492810180546001600160a01b0319166001600160a01b03909416939093179092556002808501805492975085939291830191610f1b90612293565b610f26929190611cae565b506003820181600301908054610f3b90612293565b610f46929190611cae565b50600482810154908201556005918201549101556000610f65600f5490565b9050610f718a82611682565b610f7b818a6113b6565b9450505050505b949350505050565b6000610f9a600880546001019055565b6000610fa560085490565b90506000600a86604051610fb99190612330565b908152604051602091819003820190208381556001810180546001600160a01b0319166001600160a01b038b1617905560058101869055865190925061100791600284019190880190611beb565b50909695505050505050565b60606002805461056d90612293565b61102a611c6f565b6009828154811061103d5761103d61231a565b90600052602060002090600602016040518060c0016040529081600082015481526020016001820160009054906101000a90046001600160a01b03166001600160a01b03166001600160a01b03168152602001600282018054610ac090612293565b61087033838361180d565b6110b43383611450565b6110d05760405162461bcd60e51b815260040161068b906122cd565b6109b2848484846118db565b600d602052600090815260409020805460018201546002830180546001600160a01b039093169391926108d790612293565b60606111198261128f565b6000828152600760205260408120805461113290612293565b80601f016020809104026020016040519081016040528092919081815260200182805461115e90612293565b80156111ab5780601f10611180576101008083540402835291602001916111ab565b820191906000526020600020905b81548152906001019060200180831161118e57829003601f168201915b5050505050905060006111c960408051602081019091526000815290565b905080516000036111db575092915050565b81511561120d5780826040516020016111f592919061234c565b60405160208183030381529060405292505050919050565b610f828461190e565b61121e61135c565b6001600160a01b0381166112835760405162461bcd60e51b815260206004820152602660248201527f4f776e61626c653a206e6577206f776e657220697320746865207a65726f206160448201526564647265737360d01b606482015260840161068b565b61128c81611632565b50565b6000818152600360205260409020546001600160a01b031661128c5760405162461bcd60e51b8152602060048201526018602482015277115490cdcc8c4e881a5b9d985b1a59081d1bdad95b88125160421b604482015260640161068b565b600081815260056020526040902080546001600160a01b0319166001600160a01b038416908117909155819061132382610a03565b6001600160a01b03167f8c5be1e5ebec7d5bd14f71427d1e84f3dd0314c0f7b2291e5b200ac8c7c3b92560405160405180910390a45050565b6000546001600160a01b03163314610c875760405162461bcd60e51b815260206004820181905260248201527f4f776e61626c653a2063616c6c6572206973206e6f7420746865206f776e6572604482015260640161068b565b6000828152600360205260409020546001600160a01b03166114315760405162461bcd60e51b815260206004820152602e60248201527f45524337323155524953746f726167653a2055524920736574206f66206e6f6e60448201526d32bc34b9ba32b73a103a37b5b2b760911b606482015260840161068b565b6000828152600760209081526040909120825161072c92840190611beb565b60008061145c83610a03565b9050806001600160a01b0316846001600160a01b031614806114a357506001600160a01b0380821660009081526006602090815260408083209388168352929052205460ff165b80610f825750836001600160a01b03166114bc846105f0565b6001600160a01b031614949350505050565b826001600160a01b03166114e182610a03565b6001600160a01b0316146115075760405162461bcd60e51b815260040161068b9061237b565b6001600160a01b0382166115695760405162461bcd60e51b8152602060048201526024808201527f4552433732313a207472616e7366657220746f20746865207a65726f206164646044820152637265737360e01b606482015260840161068b565b826001600160a01b031661157c82610a03565b6001600160a01b0316146115a25760405162461bcd60e51b815260040161068b9061237b565b600081815260056020908152604080832080546001600160a01b03199081169091556001600160a01b0387811680865260048552838620805460001901905590871680865283862080546001019055868652600390945282852080549092168417909155905184937fddf252ad1be2c89b69c2b068fc378daa952ba7f163c4a11628f55a4df523b3ef91a4505050565b600080546001600160a01b038381166001600160a01b0319831681178455604051919092169283917f8be0079c531659141344cd1fd0a4f28419497f9722a3daafe3b4186f6b6457e09190a35050565b6001600160a01b0382166116d85760405162461bcd60e51b815260206004820181905260248201527f4552433732313a206d696e7420746f20746865207a65726f2061646472657373604482015260640161068b565b6000818152600360205260409020546001600160a01b03161561173d5760405162461bcd60e51b815260206004820152601c60248201527f4552433732313a20746f6b656e20616c7265616479206d696e74656400000000604482015260640161068b565b6000818152600360205260409020546001600160a01b0316156117a25760405162461bcd60e51b815260206004820152601c60248201527f4552433732313a20746f6b656e20616c7265616479206d696e74656400000000604482015260640161068b565b6001600160a01b038216600081815260046020908152604080832080546001019055848352600390915280822080546001600160a01b0319168417905551839291907fddf252ad1be2c89b69c2b068fc378daa952ba7f163c4a11628f55a4df523b3ef908290a45050565b816001600160a01b0316836001600160a01b03160361186e5760405162461bcd60e51b815260206004820152601960248201527f4552433732313a20617070726f766520746f2063616c6c657200000000000000604482015260640161068b565b6001600160a01b03838116600081815260066020908152604080832094871680845294825291829020805460ff191686151590811790915591519182527f17307eab39ab6107e8899845ad3d59bd9653f200f220920489ca2b5937696c31910160405180910390a3505050565b6118e68484846114ce565b6118f284848484611982565b6109b25760405162461bcd60e51b815260040161068b906123c0565b60606119198261128f565b600061193060408051602081019091526000815290565b90506000815111611950576040518060200160405280600081525061197b565b8061195a84611a80565b60405160200161196b92919061234c565b6040516020818303038152906040525b9392505050565b60006001600160a01b0384163b15611a7857604051630a85bd0160e11b81526001600160a01b0385169063150b7a02906119c6903390899088908890600401612412565b6020604051808303816000875af1925050508015611a01575060408051601f3d908101601f191682019092526119fe9181019061244f565b60015b611a5e573d808015611a2f576040519150601f19603f3d011682016040523d82523d6000602084013e611a34565b606091505b508051600003611a565760405162461bcd60e51b815260040161068b906123c0565b805181602001fd5b6001600160e01b031916630a85bd0160e11b149050610f82565b506001610f82565b60606000611a8d83611b13565b600101905060008167ffffffffffffffff811115611aad57611aad611e86565b6040519080825280601f01601f191660200182016040528015611ad7576020820181803683370190505b5090508181016020015b600019016f181899199a1a9b1b9c1cb0b131b232b360811b600a86061a8153600a8504945084611ae157509392505050565b60008072184f03e93ff9f4daa797ed6e38ed64bf6a1f0160401b8310611b525772184f03e93ff9f4daa797ed6e38ed64bf6a1f0160401b830492506040015b6d04ee2d6d415b85acef81000000008310611b7e576d04ee2d6d415b85acef8100000000830492506020015b662386f26fc100008310611b9c57662386f26fc10000830492506010015b6305f5e1008310611bb4576305f5e100830492506008015b6127108310611bc857612710830492506004015b60648310611bda576064830492506002015b600a83106105585760010192915050565b828054611bf790612293565b90600052602060002090601f016020900481019282611c195760008555611c5f565b82601f10611c3257805160ff1916838001178555611c5f565b82800160010185558215611c5f579182015b82811115611c5f578251825591602001919060010190611c44565b50611c6b929150611d29565b5090565b6040518060c001604052806000815260200160006001600160a01b03168152602001606081526020016060815260200160008152602001600081525090565b828054611cba90612293565b90600052602060002090601f016020900481019282611cdc5760008555611c5f565b82601f10611ced5780548555611c5f565b82800160010185558215611c5f57600052602060002091601f016020900482015b82811115611c5f578254825591600101919060010190611d0e565b5b80821115611c6b5760008155600101611d2a565b6001600160e01b03198116811461128c57600080fd5b600060208284031215611d6657600080fd5b813561197b81611d3e565b60005b83811015611d8c578181015183820152602001611d74565b838111156109b25750506000910152565b60008151808452611db5816020860160208601611d71565b601f01601f19169290920160200192915050565b60208152600061197b6020830184611d9d565b600060208284031215611dee57600080fd5b5035919050565b80356001600160a01b0381168114611e0c57600080fd5b919050565b60008060408385031215611e2457600080fd5b611e2d83611df5565b946020939093013593505050565b600060208284031215611e4d57600080fd5b61197b82611df5565b60018060a01b0384168152826020820152606060408201526000611e7d6060830184611d9d565b95945050505050565b634e487b7160e01b600052604160045260246000fd5b600067ffffffffffffffff80841115611eb757611eb7611e86565b604051601f8501601f19908116603f01168101908282118183101715611edf57611edf611e86565b81604052809350858152868686011115611ef857600080fd5b858560208301376000602087830101525050509392505050565b600082601f830112611f2357600080fd5b61197b83833560208501611e9c565b600080600060608486031215611f4757600080fd5b611f5084611df5565b925060208401359150604084013567ffffffffffffffff811115611f7357600080fd5b611f7f86828701611f12565b9150509250925092565b60008060408385031215611f9c57600080fd5b82359150602083013567ffffffffffffffff811115611fba57600080fd5b611fc685828601611f12565b9150509250929050565b600080600060608486031215611fe557600080fd5b611fee84611df5565b9250611ffc60208501611df5565b9150604084013590509250925092565b6000806040838503121561201f57600080fd5b8235915061202f60208401611df5565b90509250929050565b60006020828403121561204a57600080fd5b813567ffffffffffffffff81111561206157600080fd5b610f8284828501611f12565b602081528151602082015260018060a01b0360208301511660408201526000604083015160c060608401526120a560e0840182611d9d565b90506060840151601f198483030160808501526120c28282611d9d565b915050608084015160a084015260a084015160c08401528091505092915050565b8681526001600160a01b038616602082015260c06040820181905260009061210d90830187611d9d565b828103606084015261211f8187611d9d565b6080840195909552505060a00152949350505050565b6000806000806080858703121561214b57600080fd5b61215485611df5565b9350602085013567ffffffffffffffff8082111561217157600080fd5b61217d88838901611f12565b9450604087013591508082111561219357600080fd5b506121a087828801611f12565b949793965093946060013593505050565b600080604083850312156121c457600080fd5b6121cd83611df5565b9150602083013580151581146121e257600080fd5b809150509250929050565b6000806000806080858703121561220357600080fd5b61220c85611df5565b935061221a60208601611df5565b925060408501359150606085013567ffffffffffffffff81111561223d57600080fd5b8501601f8101871361224e57600080fd5b61225d87823560208401611e9c565b91505092959194509250565b6000806040838503121561227c57600080fd5b61228583611df5565b915061202f60208401611df5565b600181811c908216806122a757607f821691505b6020821081036122c757634e487b7160e01b600052602260045260246000fd5b50919050565b6020808252602d908201527f4552433732313a2063616c6c6572206973206e6f7420746f6b656e206f776e6560408201526c1c881bdc88185c1c1c9bdd9959609a1b606082015260800190565b634e487b7160e01b600052603260045260246000fd5b60008251612342818460208701611d71565b9190910192915050565b6000835161235e818460208801611d71565b835190830190612372818360208801611d71565b01949350505050565b60208082526025908201527f4552433732313a207472616e736665722066726f6d20696e636f72726563742060408201526437bbb732b960d91b606082015260800190565b60208082526032908201527f4552433732313a207472616e7366657220746f206e6f6e20455243373231526560408201527131b2b4bb32b91034b6b83632b6b2b73a32b960711b606082015260800190565b6001600160a01b038581168252841660208201526040810183905260806060820181905260009061244590830184611d9d565b9695505050505050565b60006020828403121561246157600080fd5b815161197b81611d3e56fea2646970667358221220ac7dd78c38e796e1f7fe8aabd0f9f2ab8a63e0b8068c6e28d8874eaeea51416764736f6c634300080d0033",
    "linkReferences": {}
  }
}