{
  "abi": [
    {
      "inputs": [],
      "stateMutability": "nonpayable",
      "type": "constructor"
    },
    {
      "inputs": [],
      "name": "_articleIds",
      "outputs": [
        {
          "internalType": "uint256",
          "name": "_value",
          "type": "uint256"
        }
      ],
      "stateMutability": "view",
      "type": "function"
    },
    {
      "inputs": [],
      "name": "_authorIds",
      "outputs": [
        {
          "internalType": "uint256",
          "name": "_value",
          "type": "uint256"
        }
      ],
      "stateMutability": "view",
      "type": "function"
    },
    {
      "inputs": [
        {
          "internalType": "address",
          "name": "authorAddress",
          "type": "address"
        },
        {
          "internalType": "string",
          "name": "arweaveHash",
          "type": "string"
        },
        {
          "internalType": "string",
          "name": "metadataPtr",
          "type": "string"
        },
        {
          "internalType": "uint256",
          "name": "paid",
          "type": "uint256"
        }
      ],
      "name": "addArticle",
      "outputs": [
        {
          "internalType": "uint256",
          "name": "",
          "type": "uint256"
        }
      ],
      "stateMutability": "nonpayable",
      "type": "function"
    },
    {
      "inputs": [
        {
          "internalType": "address",
          "name": "authorAddress",
          "type": "address"
        },
        {
          "internalType": "uint256",
          "name": "articleId",
          "type": "uint256"
        },
        {
          "internalType": "string",
          "name": "profileHash",
          "type": "string"
        }
      ],
      "name": "addAuthor",
      "outputs": [
        {
          "internalType": "uint256",
          "name": "",
          "type": "uint256"
        }
      ],
      "stateMutability": "nonpayable",
      "type": "function"
    },
    {
      "inputs": [
        {
          "internalType": "string",
          "name": "",
          "type": "string"
        }
      ],
      "name": "articles",
      "outputs": [
        {
          "internalType": "uint256",
          "name": "id",
          "type": "uint256"
        },
        {
          "internalType": "address",
          "name": "author",
          "type": "address"
        },
        {
          "internalType": "string",
          "name": "metadataPtr",
          "type": "string"
        },
        {
          "internalType": "string",
          "name": "arweaveHash",
          "type": "string"
        },
        {
          "internalType": "uint256",
          "name": "tokenId",
          "type": "uint256"
        },
        {
          "internalType": "uint256",
          "name": "paid",
          "type": "uint256"
        }
      ],
      "stateMutability": "view",
      "type": "function"
    },
    {
      "inputs": [
        {
          "internalType": "address",
          "name": "",
          "type": "address"
        }
      ],
      "name": "authors",
      "outputs": [
        {
          "internalType": "address",
          "name": "authorAddress",
          "type": "address"
        },
        {
          "internalType": "uint256",
          "name": "id",
          "type": "uint256"
        },
        {
          "internalType": "string",
          "name": "arweaveProfileHash",
          "type": "string"
        }
      ],
      "stateMutability": "view",
      "type": "function"
    },
    {
      "inputs": [
        {
          "internalType": "string",
          "name": "arweaveHash",
          "type": "string"
        }
      ],
      "name": "getArticleByHash",
      "outputs": [
        {
          "components": [
            {
              "internalType": "uint256",
              "name": "id",
              "type": "uint256"
            },
            {
              "internalType": "address",
              "name": "author",
              "type": "address"
            },
            {
              "internalType": "string",
              "name": "metadataPtr",
              "type": "string"
            },
            {
              "internalType": "string",
              "name": "arweaveHash",
              "type": "string"
            },
            {
              "internalType": "uint256",
              "name": "tokenId",
              "type": "uint256"
            },
            {
              "internalType": "uint256",
              "name": "paid",
              "type": "uint256"
            }
          ],
          "internalType": "struct ArticleEntity.Article",
          "name": "",
          "type": "tuple"
        }
      ],
      "stateMutability": "view",
      "type": "function"
    },
    {
      "inputs": [
        {
          "internalType": "uint256",
          "name": "articleId",
          "type": "uint256"
        }
      ],
      "name": "getArticleById",
      "outputs": [
        {
          "components": [
            {
              "internalType": "uint256",
              "name": "id",
              "type": "uint256"
            },
            {
              "internalType": "address",
              "name": "author",
              "type": "address"
            },
            {
              "internalType": "string",
              "name": "metadataPtr",
              "type": "string"
            },
            {
              "internalType": "string",
              "name": "arweaveHash",
              "type": "string"
            },
            {
              "internalType": "uint256",
              "name": "tokenId",
              "type": "uint256"
            },
            {
              "internalType": "uint256",
              "name": "paid",
              "type": "uint256"
            }
          ],
          "internalType": "struct ArticleEntity.Article",
          "name": "",
          "type": "tuple"
        }
      ],
      "stateMutability": "view",
      "type": "function"
    },
    {
      "inputs": [
        {
          "internalType": "address",
          "name": "authorAddress",
          "type": "address"
        }
      ],
      "name": "getAuthor",
      "outputs": [
        {
          "internalType": "address",
          "name": "",
          "type": "address"
        },
        {
          "internalType": "uint256",
          "name": "",
          "type": "uint256"
        },
        {
          "internalType": "string",
          "name": "",
          "type": "string"
        }
      ],
      "stateMutability": "view",
      "type": "function"
    },
    {
      "inputs": [
        {
          "internalType": "uint256",
          "name": "",
          "type": "uint256"
        }
      ],
      "name": "idToAuthor",
      "outputs": [
        {
          "internalType": "address",
          "name": "authorAddress",
          "type": "address"
        },
        {
          "internalType": "uint256",
          "name": "id",
          "type": "uint256"
        },
        {
          "internalType": "string",
          "name": "arweaveProfileHash",
          "type": "string"
        }
      ],
      "stateMutability": "view",
      "type": "function"
    },
    {
      "inputs": [
        {
          "internalType": "uint256",
          "name": "articleId",
          "type": "uint256"
        },
        {
          "internalType": "address",
          "name": "authorAddress",
          "type": "address"
        }
      ],
      "name": "updateArticleAuthorAddress",
      "outputs": [],
      "stateMutability": "nonpayable",
      "type": "function"
    },
    {
      "inputs": [
        {
          "internalType": "uint256",
          "name": "articleId",
          "type": "uint256"
        },
        {
          "internalType": "string",
          "name": "newPointer",
          "type": "string"
        }
      ],
      "name": "updateArticleMetadata",
      "outputs": [],
      "stateMutability": "nonpayable",
      "type": "function"
    },
    {
      "inputs": [
        {
          "internalType": "address",
          "name": "authorAddress",
          "type": "address"
        }
      ],
      "name": "updateAuthor",
      "outputs": [],
      "stateMutability": "nonpayable",
      "type": "function"
    }
  ],
  "bytecode": {
    "object": "0x608060405234801561001057600080fd5b50610dd2806100206000396000f3fe608060405234801561001057600080fd5b50600436106100cf5760003560e01c80634d7564b21161008c5780637c702b8d116100665780637c702b8d146101ac57806395c2cbb8146101d157806395de6736146101e4578063bf9c5001146101f757600080fd5b80634d7564b2146101665780635de55d69146101795780636fd00fc81461018c57600080fd5b80630a6e81e4146100d45780630ab30093146100f15780630b2a6ce81461011357806331bb3241146101265780633801ba26146101395780633e0a01121461015c575b600080fd5b6000546100de9081565b6040519081526020015b60405180910390f35b6101046100ff36600461097f565b61020a565b6040516100e8939291906109f9565b6100de610121366004610acc565b6102d7565b610104610134366004610b23565b610337565b61015a61014736600461097f565b6001600160a01b03166000526005602052565b005b6003546100de9081565b61015a610174366004610b3c565b6103ec565b61015a610187366004610b83565b61042f565b61019f61019a366004610baf565b61047a565b6040516100e89190610bec565b6101bf6101ba366004610baf565b610606565b6040516100e896959493929190610c62565b6100de6101df366004610cb4565b610765565b61019f6101f2366004610b23565b6107dc565b61010461020536600461097f565b610859565b6001600160a01b03808216600090815260056020526040812080546001820154600290920180549394859460609493909116929190819061024a90610d30565b80601f016020809104026020016040519081016040528092919081815260200182805461027690610d30565b80156102c35780601f10610298576101008083540402835291602001916102c3565b820191906000526020600020905b8154815290600101906020018083116102a657829003601f168201915b505050505090509250925092509193909250565b60006102e7600380546001019055565b60006102f260035490565b6001600160a01b03861660009081526005602090815260409091206001810183905585519293509161032c9160028401919087019061088b565b509095945050505050565b6006602052600090815260409020805460018201546002830180546001600160a01b0390931693919261036990610d30565b80601f016020809104026020016040519081016040528092919081815260200182805461039590610d30565b80156103e25780601f106103b7576101008083540402835291602001916103e2565b820191906000526020600020905b8154815290600101906020018083116103c557829003601f168201915b5050505050905083565b60006001838154811061040157610401610d6a565b906000526020600020906006020190508181600201908051906020019061042992919061088b565b50505050565b60006001838154811061044457610444610d6a565b6000918252602090912060069091020160010180546001600160a01b0319166001600160a01b0393909316929092179091555050565b61048261090f565b6002826040516104929190610d80565b90815260408051918290036020908101832060c0840183528054845260018101546001600160a01b03169184019190915260028101805491928401916104d790610d30565b80601f016020809104026020016040519081016040528092919081815260200182805461050390610d30565b80156105505780601f1061052557610100808354040283529160200191610550565b820191906000526020600020905b81548152906001019060200180831161053357829003601f168201915b5050505050815260200160038201805461056990610d30565b80601f016020809104026020016040519081016040528092919081815260200182805461059590610d30565b80156105e25780601f106105b7576101008083540402835291602001916105e2565b820191906000526020600020905b8154815290600101906020018083116105c557829003601f168201915b50505050508152602001600482015481526020016005820154815250509050919050565b80516020818301810180516002808352938301929094019190912092905281546001830154918301805491936001600160a01b03909316929161064890610d30565b80601f016020809104026020016040519081016040528092919081815260200182805461067490610d30565b80156106c15780601f10610696576101008083540402835291602001916106c1565b820191906000526020600020905b8154815290600101906020018083116106a457829003601f168201915b5050505050908060030180546106d690610d30565b80601f016020809104026020016040519081016040528092919081815260200182805461070290610d30565b801561074f5780601f106107245761010080835404028352916020019161074f565b820191906000526020600020905b81548152906001019060200180831161073257829003601f168201915b5050505050908060040154908060050154905086565b600080546001018082556040518290600290610782908890610d80565b908152604051602091819003820190208381556001810180546001600160a01b0319166001600160a01b038b161790556005810186905586519092506107d09160028401919088019061088b565b50909695505050505050565b6107e461090f565b600182815481106107f7576107f7610d6a565b90600052602060002090600602016040518060c0016040529081600082015481526020016001820160009054906101000a90046001600160a01b03166001600160a01b03166001600160a01b031681526020016002820180546104d790610d30565b6005602052600090815260409020805460018201546002830180546001600160a01b0390931693919261036990610d30565b82805461089790610d30565b90600052602060002090601f0160209004810192826108b957600085556108ff565b82601f106108d257805160ff19168380011785556108ff565b828001600101855582156108ff579182015b828111156108ff5782518255916020019190600101906108e4565b5061090b92915061094e565b5090565b6040518060c001604052806000815260200160006001600160a01b03168152602001606081526020016060815260200160008152602001600081525090565b5b8082111561090b576000815560010161094f565b80356001600160a01b038116811461097a57600080fd5b919050565b60006020828403121561099157600080fd5b61099a82610963565b9392505050565b60005b838110156109bc5781810151838201526020016109a4565b838111156104295750506000910152565b600081518084526109e58160208601602086016109a1565b601f01601f19169290920160200192915050565b60018060a01b0384168152826020820152606060408201526000610a2060608301846109cd565b95945050505050565b634e487b7160e01b600052604160045260246000fd5b600082601f830112610a5057600080fd5b813567ffffffffffffffff80821115610a6b57610a6b610a29565b604051601f8301601f19908116603f01168101908282118183101715610a9357610a93610a29565b81604052838152866020858801011115610aac57600080fd5b836020870160208301376000602085830101528094505050505092915050565b600080600060608486031215610ae157600080fd5b610aea84610963565b925060208401359150604084013567ffffffffffffffff811115610b0d57600080fd5b610b1986828701610a3f565b9150509250925092565b600060208284031215610b3557600080fd5b5035919050565b60008060408385031215610b4f57600080fd5b82359150602083013567ffffffffffffffff811115610b6d57600080fd5b610b7985828601610a3f565b9150509250929050565b60008060408385031215610b9657600080fd5b82359150610ba660208401610963565b90509250929050565b600060208284031215610bc157600080fd5b813567ffffffffffffffff811115610bd857600080fd5b610be484828501610a3f565b949350505050565b602081528151602082015260018060a01b0360208301511660408201526000604083015160c06060840152610c2460e08401826109cd565b90506060840151601f19848303016080850152610c4182826109cd565b915050608084015160a084015260a084015160c08401528091505092915050565b8681526001600160a01b038616602082015260c060408201819052600090610c8c908301876109cd565b8281036060840152610c9e81876109cd565b6080840195909552505060a00152949350505050565b60008060008060808587031215610cca57600080fd5b610cd385610963565b9350602085013567ffffffffffffffff80821115610cf057600080fd5b610cfc88838901610a3f565b94506040870135915080821115610d1257600080fd5b50610d1f87828801610a3f565b949793965093946060013593505050565b600181811c90821680610d4457607f821691505b602082108103610d6457634e487b7160e01b600052602260045260246000fd5b50919050565b634e487b7160e01b600052603260045260246000fd5b60008251610d928184602087016109a1565b919091019291505056fea2646970667358221220977edbf9c100990e9d2943a79b9f0f6b64fa07010b208b4c06a7bb294b82647c64736f6c634300080d0033",
    "linkReferences": {}
  }
}