{
  "abi": [
    {
      "inputs": [
        {
          "internalType": "address",
          "name": "_owner",
          "type": "address"
        }
      ],
      "stateMutability": "nonpayable",
      "type": "constructor"
    },
    {
      "inputs": [],
      "name": "InvalidNonce",
      "type": "error"
    },
    {
      "inputs": [],
      "name": "LowBalance",
      "type": "error"
    },
    {
      "inputs": [],
      "name": "OnlyOwner",
      "type": "error"
    },
    {
      "inputs": [],
      "name": "PastDeadline",
      "type": "error"
    },
    {
      "inputs": [],
      "name": "SignatureExpired",
      "type": "error"
    },
    {
      "inputs": [],
      "name": "WrongRole",
      "type": "error"
    },
    {
      "inputs": [],
      "name": "ZeroAddress",
      "type": "error"
    },
    {
      "anonymous": false,
      "inputs": [
        {
          "indexed": true,
          "internalType": "address",
          "name": "owner",
          "type": "address"
        },
        {
          "indexed": true,
          "internalType": "address",
          "name": "spender",
          "type": "address"
        },
        {
          "indexed": false,
          "internalType": "uint256",
          "name": "value",
          "type": "uint256"
        }
      ],
      "name": "Approval",
      "type": "event"
    },
    {
      "anonymous": false,
      "inputs": [
        {
          "indexed": true,
          "internalType": "address",
          "name": "delegator",
          "type": "address"
        },
        {
          "indexed": true,
          "internalType": "address",
          "name": "fromDelegate",
          "type": "address"
        },
        {
          "indexed": true,
          "internalType": "address",
          "name": "toDelegate",
          "type": "address"
        }
      ],
      "name": "DelegateChanged",
      "type": "event"
    },
    {
      "anonymous": false,
      "inputs": [
        {
          "indexed": true,
          "internalType": "address",
          "name": "delegate",
          "type": "address"
        },
        {
          "indexed": false,
          "internalType": "uint256",
          "name": "previousBalance",
          "type": "uint256"
        },
        {
          "indexed": false,
          "internalType": "uint256",
          "name": "newBalance",
          "type": "uint256"
        }
      ],
      "name": "DelegateVotesChanged",
      "type": "event"
    },
    {
      "anonymous": false,
      "inputs": [
        {
          "indexed": true,
          "internalType": "address",
          "name": "previousOwner",
          "type": "address"
        },
        {
          "indexed": true,
          "internalType": "address",
          "name": "newOwner",
          "type": "address"
        }
      ],
      "name": "OwnershipTransferred",
      "type": "event"
    },
    {
      "anonymous": false,
      "inputs": [
        {
          "indexed": true,
          "internalType": "bytes32",
          "name": "role",
          "type": "bytes32"
        },
        {
          "indexed": true,
          "internalType": "bytes32",
          "name": "previousAdminRole",
          "type": "bytes32"
        },
        {
          "indexed": true,
          "internalType": "bytes32",
          "name": "newAdminRole",
          "type": "bytes32"
        }
      ],
      "name": "RoleAdminChanged",
      "type": "event"
    },
    {
      "anonymous": false,
      "inputs": [
        {
          "indexed": true,
          "internalType": "bytes32",
          "name": "role",
          "type": "bytes32"
        },
        {
          "indexed": true,
          "internalType": "address",
          "name": "account",
          "type": "address"
        },
        {
          "indexed": true,
          "internalType": "address",
          "name": "sender",
          "type": "address"
        }
      ],
      "name": "RoleGranted",
      "type": "event"
    },
    {
      "anonymous": false,
      "inputs": [
        {
          "indexed": true,
          "internalType": "bytes32",
          "name": "role",
          "type": "bytes32"
        },
        {
          "indexed": true,
          "internalType": "address",
          "name": "account",
          "type": "address"
        },
        {
          "indexed": true,
          "internalType": "address",
          "name": "sender",
          "type": "address"
        }
      ],
      "name": "RoleRevoked",
      "type": "event"
    },
    {
      "anonymous": false,
      "inputs": [
        {
          "indexed": false,
          "internalType": "address",
          "name": "owner",
          "type": "address"
        },
        {
          "indexed": false,
          "internalType": "uint128",
          "name": "oldValue",
          "type": "uint128"
        },
        {
          "indexed": false,
          "internalType": "uint128",
          "name": "newValue",
          "type": "uint128"
        }
      ],
      "name": "SnapshotDone",
      "type": "event"
    },
    {
      "anonymous": false,
      "inputs": [
        {
          "indexed": true,
          "internalType": "address",
          "name": "from",
          "type": "address"
        },
        {
          "indexed": true,
          "internalType": "address",
          "name": "to",
          "type": "address"
        },
        {
          "indexed": false,
          "internalType": "uint256",
          "name": "value",
          "type": "uint256"
        }
      ],
      "name": "Transfer",
      "type": "event"
    },
    {
      "inputs": [],
      "name": "DAO_ROLE",
      "outputs": [
        {
          "internalType": "bytes32",
          "name": "",
          "type": "bytes32"
        }
      ],
      "stateMutability": "view",
      "type": "function"
    },
    {
      "inputs": [],
      "name": "DEFAULT_ADMIN_ROLE",
      "outputs": [
        {
          "internalType": "bytes32",
          "name": "",
          "type": "bytes32"
        }
      ],
      "stateMutability": "view",
      "type": "function"
    },
    {
      "inputs": [],
      "name": "DELEGATION_TYPEHASH",
      "outputs": [
        {
          "internalType": "bytes32",
          "name": "",
          "type": "bytes32"
        }
      ],
      "stateMutability": "view",
      "type": "function"
    },
    {
      "inputs": [],
      "name": "DISTRIBUTOR_ROLE",
      "outputs": [
        {
          "internalType": "bytes32",
          "name": "",
          "type": "bytes32"
        }
      ],
      "stateMutability": "view",
      "type": "function"
    },
    {
      "inputs": [],
      "name": "DOMAIN_TYPEHASH",
      "outputs": [
        {
          "internalType": "bytes32",
          "name": "",
          "type": "bytes32"
        }
      ],
      "stateMutability": "view",
      "type": "function"
    },
    {
      "inputs": [],
      "name": "MINTER_ROLE",
      "outputs": [
        {
          "internalType": "bytes32",
          "name": "",
          "type": "bytes32"
        }
      ],
      "stateMutability": "view",
      "type": "function"
    },
    {
      "inputs": [],
      "name": "OPERATOR_ROLE",
      "outputs": [
        {
          "internalType": "bytes32",
          "name": "",
          "type": "bytes32"
        }
      ],
      "stateMutability": "view",
      "type": "function"
    },
    {
      "inputs": [],
      "name": "PERMIT_TYPEHASH",
      "outputs": [
        {
          "internalType": "bytes32",
          "name": "",
          "type": "bytes32"
        }
      ],
      "stateMutability": "view",
      "type": "function"
    },
    {
      "inputs": [
        {
          "internalType": "address",
          "name": "owner",
          "type": "address"
        },
        {
          "internalType": "address",
          "name": "spender",
          "type": "address"
        }
      ],
      "name": "allowance",
      "outputs": [
        {
          "internalType": "uint256",
          "name": "",
          "type": "uint256"
        }
      ],
      "stateMutability": "view",
      "type": "function"
    },
    {
      "inputs": [
        {
          "internalType": "address",
          "name": "",
          "type": "address"
        },
        {
          "internalType": "address",
          "name": "",
          "type": "address"
        }
      ],
      "name": "allowances",
      "outputs": [
        {
          "internalType": "uint256",
          "name": "",
          "type": "uint256"
        }
      ],
      "stateMutability": "view",
      "type": "function"
    },
    {
      "inputs": [
        {
          "internalType": "address",
          "name": "spender",
          "type": "address"
        },
        {
          "internalType": "uint256",
          "name": "amount",
          "type": "uint256"
        }
      ],
      "name": "approve",
      "outputs": [
        {
          "internalType": "bool",
          "name": "",
          "type": "bool"
        }
      ],
      "stateMutability": "nonpayable",
      "type": "function"
    },
    {
      "inputs": [
        {
          "internalType": "address",
          "name": "account",
          "type": "address"
        }
      ],
      "name": "balanceOf",
      "outputs": [
        {
          "internalType": "uint256",
          "name": "",
          "type": "uint256"
        }
      ],
      "stateMutability": "view",
      "type": "function"
    },
    {
      "inputs": [
        {
          "internalType": "uint256",
          "name": "_amount",
          "type": "uint256"
        }
      ],
      "name": "burn",
      "outputs": [],
      "stateMutability": "nonpayable",
      "type": "function"
    },
    {
      "inputs": [
        {
          "internalType": "address",
          "name": "_from",
          "type": "address"
        },
        {
          "internalType": "uint256",
          "name": "_amount",
          "type": "uint256"
        }
      ],
      "name": "burnFrom",
      "outputs": [],
      "stateMutability": "nonpayable",
      "type": "function"
    },
    {
      "inputs": [
        {
          "internalType": "address",
          "name": "",
          "type": "address"
        },
        {
          "internalType": "uint32",
          "name": "",
          "type": "uint32"
        }
      ],
      "name": "checkpoints",
      "outputs": [
        {
          "internalType": "uint32",
          "name": "fromBlock",
          "type": "uint32"
        },
        {
          "internalType": "uint256",
          "name": "votes",
          "type": "uint256"
        }
      ],
      "stateMutability": "view",
      "type": "function"
    },
    {
      "inputs": [],
      "name": "decimals",
      "outputs": [
        {
          "internalType": "uint8",
          "name": "",
          "type": "uint8"
        }
      ],
      "stateMutability": "view",
      "type": "function"
    },
    {
      "inputs": [
        {
          "internalType": "address",
          "name": "spender",
          "type": "address"
        },
        {
          "internalType": "uint256",
          "name": "subtractedValue",
          "type": "uint256"
        }
      ],
      "name": "decreaseAllowance",
      "outputs": [
        {
          "internalType": "bool",
          "name": "",
          "type": "bool"
        }
      ],
      "stateMutability": "nonpayable",
      "type": "function"
    },
    {
      "inputs": [
        {
          "internalType": "address",
          "name": "delegatee",
          "type": "address"
        }
      ],
      "name": "delegate",
      "outputs": [],
      "stateMutability": "nonpayable",
      "type": "function"
    },
    {
      "inputs": [
        {
          "internalType": "address",
          "name": "delegatee",
          "type": "address"
        },
        {
          "internalType": "uint256",
          "name": "nonce",
          "type": "uint256"
        },
        {
          "internalType": "uint256",
          "name": "expiry",
          "type": "uint256"
        },
        {
          "internalType": "uint8",
          "name": "v",
          "type": "uint8"
        },
        {
          "internalType": "bytes32",
          "name": "r",
          "type": "bytes32"
        },
        {
          "internalType": "bytes32",
          "name": "s",
          "type": "bytes32"
        }
      ],
      "name": "delegateBySig",
      "outputs": [],
      "stateMutability": "nonpayable",
      "type": "function"
    },
    {
      "inputs": [
        {
          "internalType": "address",
          "name": "delegator",
          "type": "address"
        }
      ],
      "name": "delegatesView",
      "outputs": [
        {
          "internalType": "address",
          "name": "",
          "type": "address"
        }
      ],
      "stateMutability": "view",
      "type": "function"
    },
    {
      "inputs": [
        {
          "internalType": "address",
          "name": "account",
          "type": "address"
        }
      ],
      "name": "getCurrentVotes",
      "outputs": [
        {
          "internalType": "uint256",
          "name": "",
          "type": "uint256"
        }
      ],
      "stateMutability": "view",
      "type": "function"
    },
    {
      "inputs": [
        {
          "internalType": "address",
          "name": "account",
          "type": "address"
        },
        {
          "internalType": "uint256",
          "name": "blockNumber",
          "type": "uint256"
        }
      ],
      "name": "getPriorVotes",
      "outputs": [
        {
          "internalType": "uint256",
          "name": "",
          "type": "uint256"
        }
      ],
      "stateMutability": "view",
      "type": "function"
    },
    {
      "inputs": [
        {
          "internalType": "bytes32",
          "name": "role",
          "type": "bytes32"
        }
      ],
      "name": "getRoleAdmin",
      "outputs": [
        {
          "internalType": "bytes32",
          "name": "",
          "type": "bytes32"
        }
      ],
      "stateMutability": "view",
      "type": "function"
    },
    {
      "inputs": [
        {
          "internalType": "bytes32",
          "name": "role",
          "type": "bytes32"
        },
        {
          "internalType": "address",
          "name": "account",
          "type": "address"
        }
      ],
      "name": "grantRole",
      "outputs": [],
      "stateMutability": "nonpayable",
      "type": "function"
    },
    {
      "inputs": [
        {
          "internalType": "bytes32",
          "name": "role",
          "type": "bytes32"
        },
        {
          "internalType": "address",
          "name": "account",
          "type": "address"
        }
      ],
      "name": "hasRole",
      "outputs": [
        {
          "internalType": "bool",
          "name": "",
          "type": "bool"
        }
      ],
      "stateMutability": "view",
      "type": "function"
    },
    {
      "inputs": [
        {
          "internalType": "address",
          "name": "spender",
          "type": "address"
        },
        {
          "internalType": "uint256",
          "name": "addedValue",
          "type": "uint256"
        }
      ],
      "name": "increaseAllowance",
      "outputs": [
        {
          "internalType": "bool",
          "name": "",
          "type": "bool"
        }
      ],
      "stateMutability": "nonpayable",
      "type": "function"
    },
    {
      "inputs": [
        {
          "internalType": "address",
          "name": "_to",
          "type": "address"
        },
        {
          "internalType": "uint256",
          "name": "_amount",
          "type": "uint256"
        }
      ],
      "name": "mintTokensTo",
      "outputs": [],
      "stateMutability": "nonpayable",
      "type": "function"
    },
    {
      "inputs": [],
      "name": "name",
      "outputs": [
        {
          "internalType": "string",
          "name": "",
          "type": "string"
        }
      ],
      "stateMutability": "view",
      "type": "function"
    },
    {
      "inputs": [
        {
          "internalType": "address",
          "name": "",
          "type": "address"
        }
      ],
      "name": "numCheckpoints",
      "outputs": [
        {
          "internalType": "uint32",
          "name": "",
          "type": "uint32"
        }
      ],
      "stateMutability": "view",
      "type": "function"
    },
    {
      "inputs": [],
      "name": "owner",
      "outputs": [
        {
          "internalType": "address",
          "name": "",
          "type": "address"
        }
      ],
      "stateMutability": "view",
      "type": "function"
    },
    {
      "inputs": [
        {
          "internalType": "address",
          "name": "owner",
          "type": "address"
        },
        {
          "internalType": "address",
          "name": "spender",
          "type": "address"
        },
        {
          "internalType": "uint256",
          "name": "rawAmount",
          "type": "uint256"
        },
        {
          "internalType": "uint256",
          "name": "deadline",
          "type": "uint256"
        },
        {
          "internalType": "uint8",
          "name": "v",
          "type": "uint8"
        },
        {
          "internalType": "bytes32",
          "name": "r",
          "type": "bytes32"
        },
        {
          "internalType": "bytes32",
          "name": "s",
          "type": "bytes32"
        }
      ],
      "name": "permit",
      "outputs": [],
      "stateMutability": "nonpayable",
      "type": "function"
    },
    {
      "inputs": [],
      "name": "renounceOwnership",
      "outputs": [],
      "stateMutability": "nonpayable",
      "type": "function"
    },
    {
      "inputs": [
        {
          "internalType": "bytes32",
          "name": "role",
          "type": "bytes32"
        },
        {
          "internalType": "address",
          "name": "account",
          "type": "address"
        }
      ],
      "name": "renounceRole",
      "outputs": [],
      "stateMutability": "nonpayable",
      "type": "function"
    },
    {
      "inputs": [
        {
          "internalType": "bytes32",
          "name": "role",
          "type": "bytes32"
        },
        {
          "internalType": "address",
          "name": "account",
          "type": "address"
        }
      ],
      "name": "revokeRole",
      "outputs": [],
      "stateMutability": "nonpayable",
      "type": "function"
    },
    {
      "inputs": [
        {
          "internalType": "address",
          "name": "_newDao",
          "type": "address"
        }
      ],
      "name": "setupDaoRole",
      "outputs": [],
      "stateMutability": "nonpayable",
      "type": "function"
    },
    {
      "inputs": [
        {
          "internalType": "address",
          "name": "_newDistributor",
          "type": "address"
        }
      ],
      "name": "setupDistributorRole",
      "outputs": [],
      "stateMutability": "nonpayable",
      "type": "function"
    },
    {
      "inputs": [
        {
          "internalType": "address",
          "name": "newMinter",
          "type": "address"
        }
      ],
      "name": "setupMinterRole",
      "outputs": [],
      "stateMutability": "nonpayable",
      "type": "function"
    },
    {
      "inputs": [
        {
          "internalType": "address",
          "name": "_newAdmin",
          "type": "address"
        },
        {
          "internalType": "address",
          "name": "_oldAdmin",
          "type": "address"
        }
      ],
      "name": "setupNewAdminRole",
      "outputs": [],
      "stateMutability": "nonpayable",
      "type": "function"
    },
    {
      "inputs": [
        {
          "internalType": "address",
          "name": "_newOperator",
          "type": "address"
        }
      ],
      "name": "setupOperatorRole",
      "outputs": [],
      "stateMutability": "nonpayable",
      "type": "function"
    },
    {
      "inputs": [
        {
          "internalType": "bytes4",
          "name": "interfaceId",
          "type": "bytes4"
        }
      ],
      "name": "supportsInterface",
      "outputs": [
        {
          "internalType": "bool",
          "name": "",
          "type": "bool"
        }
      ],
      "stateMutability": "view",
      "type": "function"
    },
    {
      "inputs": [],
      "name": "symbol",
      "outputs": [
        {
          "internalType": "string",
          "name": "",
          "type": "string"
        }
      ],
      "stateMutability": "view",
      "type": "function"
    },
    {
      "inputs": [],
      "name": "totalSupply",
      "outputs": [
        {
          "internalType": "uint256",
          "name": "",
          "type": "uint256"
        }
      ],
      "stateMutability": "view",
      "type": "function"
    },
    {
      "inputs": [
        {
          "internalType": "address",
          "name": "to",
          "type": "address"
        },
        {
          "internalType": "uint256",
          "name": "amount",
          "type": "uint256"
        }
      ],
      "name": "transfer",
      "outputs": [
        {
          "internalType": "bool",
          "name": "",
          "type": "bool"
        }
      ],
      "stateMutability": "nonpayable",
      "type": "function"
    },
    {
      "inputs": [
        {
          "internalType": "address",
          "name": "from",
          "type": "address"
        },
        {
          "internalType": "address",
          "name": "to",
          "type": "address"
        },
        {
          "internalType": "uint256",
          "name": "amount",
          "type": "uint256"
        }
      ],
      "name": "transferFrom",
      "outputs": [
        {
          "internalType": "bool",
          "name": "",
          "type": "bool"
        }
      ],
      "stateMutability": "nonpayable",
      "type": "function"
    },
    {
      "inputs": [
        {
          "internalType": "address",
          "name": "newOwner",
          "type": "address"
        }
      ],
      "name": "transferOwnership",
      "outputs": [],
      "stateMutability": "nonpayable",
      "type": "function"
    }
  ],
  "bytecode": {
    "object": "0x60806040523480156200001157600080fd5b5060405162002dd238038062002dd2833981016040819052620000349162000531565b604080518082018252601981527f766554616c656e742052657075746174696f6e20546f6b656e000000000000006020808301918252835180850190945260088452671d9955105311539560c21b90840152815191929162000099916003916200048b565b508051620000af9060049060208401906200048b565b505050620000cc620000c6620001b260201b60201c565b620001b6565b620000f87f97667070c54ef182b0f5858b034beac1b6f3089aa2d3188bb1e8929f4fa9b9293362000208565b620001247ffbd454f36a7e1a388bd6fc3ab10d434aa4578f811acbbcf33afb1c697486313c3362000208565b620001507f9f2df0fed2c77648de5860a4cc508cd0818c85b8b8a1ab4ceeef8d981c8956a63362000208565b6200015d60003362000208565b620001897f3b5d4cc60d3ec3516ee8ae083bd60934f6eb2a6c54b1229985c41bfb092b26033362000208565b620001a0336a084595161401484a00000062000218565b620001ab81620002ed565b50620005c6565b3390565b600580546001600160a01b038381166001600160a01b0319831681179093556040519116919082907f8be0079c531659141344cd1fd0a4f28419497f9722a3daafe3b4186f6b6457e090600090a35050565b6200021482826200036c565b5050565b6001600160a01b038216620002745760405162461bcd60e51b815260206004820152601f60248201527f45524332303a206d696e7420746f20746865207a65726f20616464726573730060448201526064015b60405180910390fd5b620002826000838362000410565b806002600082825462000296919062000563565b90915550506001600160a01b038216600081815260208181526040808320805486019055518481527fddf252ad1be2c89b69c2b068fc378daa952ba7f163c4a11628f55a4df523b3ef910160405180910390a35050565b620002f76200042d565b6001600160a01b0381166200035e5760405162461bcd60e51b815260206004820152602660248201527f4f776e61626c653a206e6577206f776e657220697320746865207a65726f206160448201526564647265737360d01b60648201526084016200026b565b6200036981620001b6565b50565b60008281526006602090815260408083206001600160a01b038516845290915290205460ff16620002145760008281526006602090815260408083206001600160a01b03851684529091529020805460ff19166001179055620003cc3390565b6001600160a01b0316816001600160a01b0316837f2f8788117e7eff1d82e926ec794901d17c78024a50270940304540a733656f0d60405160405180910390a45050565b620004288383836200042860201b620009931760201c565b505050565b6005546001600160a01b03163314620004895760405162461bcd60e51b815260206004820181905260248201527f4f776e61626c653a2063616c6c6572206973206e6f7420746865206f776e657260448201526064016200026b565b565b82805462000499906200058a565b90600052602060002090601f016020900481019282620004bd576000855562000508565b82601f10620004d857805160ff191683800117855562000508565b8280016001018555821562000508579182015b8281111562000508578251825591602001919060010190620004eb565b50620005169291506200051a565b5090565b5b808211156200051657600081556001016200051b565b6000602082840312156200054457600080fd5b81516001600160a01b03811681146200055c57600080fd5b9392505050565b600082198211156200058557634e487b7160e01b600052601160045260246000fd5b500190565b600181811c908216806200059f57607f821691505b602082108103620005c057634e487b7160e01b600052602260045260246000fd5b50919050565b6127fc80620005d66000396000f3fe608060405234801561001057600080fd5b506004361061027f5760003560e01c8063782d6fe11161015c578063d505accf116100ce578063e9c2651811610087578063e9c265181461063d578063f0bd87cc14610664578063f1127ed81461068b578063f2fde38b146106e2578063f5b541a6146106f5578063fcce83721461071c57600080fd5b8063d505accf146105a3578063d5391393146105b6578063d547741f146105dd578063dd62ed3e146105f0578063e7a324dc14610603578063e88aca541461062a57600080fd5b8063a217fddf11610120578063a217fddf14610523578063a457c2d71461052b578063a9059cbb1461053e578063b4b5ea5714610551578063b54bae6014610564578063c3cda5201461059057600080fd5b8063782d6fe1146104bd57806379cc6790146104d05780638da5cb5b146104e357806391d148541461050857806395d89b411461051b57600080fd5b8063313ce567116101f557806355b6ed5c116101b957806355b6ed5c146104005780635c19a95c1461042b5780636fcfff451461043e57806370a0823114610479578063715018a6146104a257806372f65075146104aa57600080fd5b8063313ce567146103a557806336568abe146103b457806339509351146103c757806342966c68146103da5780634cc92fe1146103ed57600080fd5b806318160ddd1161024757806318160ddd146102fc57806320606b701461030e57806323b872dd14610335578063248a9ca3146103485780632f2ff15d1461036b57806330adf81f1461037e57600080fd5b806301ffc9a7146102845780630549a1be146102ac57806306fdde03146102c1578063095ea7b3146102d65780631620d5cf146102e9575b600080fd5b6102976102923660046122b9565b61072f565b60405190151581526020015b60405180910390f35b6102bf6102ba3660046122ff565b610766565b005b6102c9610882565b6040516102a39190612355565b6102976102e43660046122ff565b610914565b6102bf6102f7366004612388565b61092c565b6002545b6040519081526020016102a3565b6103007f2ce9970b46ea1bff1d78000ab660407f50a9499f6742ac914d6e6aa91d8c8b2481565b6102976103433660046123bb565b61094a565b6103006103563660046123f7565b60009081526006602052604090206001015490565b6102bf610379366004612410565b61096e565b6103007f6e71edae12b1b97f4d1f60370fef10105fa2faae0126114a169c64845d6126c981565b604051601281526020016102a3565b6102bf6103c2366004612410565b610998565b6102976103d53660046122ff565b610a17565b6102bf6103e83660046123f7565b610a39565b6102bf6103fb366004612433565b610ab0565b61030061040e366004612388565b600960209081526000928352604080842090915290825290205481565b6102bf610439366004612433565b610b33565b61046461044c366004612433565b600b6020526000908152604090205463ffffffff1681565b60405163ffffffff90911681526020016102a3565b610300610487366004612433565b6001600160a01b031660009081526020819052604090205490565b6102bf610b3d565b6102bf6104b8366004612433565b610b51565b6103006104cb3660046122ff565b610bbb565b6102bf6104de3660046122ff565b610e25565b6005546001600160a01b03165b6040516001600160a01b0390911681526020016102a3565b610297610516366004612410565b610eab565b6102c9610ed6565b610300600081565b6102976105393660046122ff565b610ee5565b61029761054c3660046122ff565b610f60565b61030061055f366004612433565b610f6e565b6104f0610572366004612433565b6001600160a01b039081166000908152600860205260409020541690565b6102bf61059e36600461245f565b610fe3565b6102bf6105b13660046124b7565b6111fa565b6103007f9f2df0fed2c77648de5860a4cc508cd0818c85b8b8a1ab4ceeef8d981c8956a681565b6102bf6105eb366004612410565b6114c6565b6103006105fe366004612388565b6114eb565b6103007f5fcb5c7123eaeba08e343f760098721481a2c32d9a76aa02603c5a558628555781565b6102bf610638366004612433565b611516565b6103007f3b5d4cc60d3ec3516ee8ae083bd60934f6eb2a6c54b1229985c41bfb092b260381565b6103007ffbd454f36a7e1a388bd6fc3ab10d434aa4578f811acbbcf33afb1c697486313c81565b6106c6610699366004612521565b600a6020908152600092835260408084209091529082529020805460019091015463ffffffff9091169082565b6040805163ffffffff90931683526020830191909152016102a3565b6102bf6106f0366004612433565b611548565b6103007f97667070c54ef182b0f5858b034beac1b6f3089aa2d3188bb1e8929f4fa9b92981565b6102bf61072a366004612433565b6115be565b60006001600160e01b03198216637965db0b60e01b148061076057506301ffc9a760e01b6001600160e01b03198316145b92915050565b6107907f9f2df0fed2c77648de5860a4cc508cd0818c85b8b8a1ab4ceeef8d981c8956a633610eab565b15806107b55750336107aa6005546001600160a01b031690565b6001600160a01b0316145b156107d357604051630766999960e41b815260040160405180910390fd5b6001600160a01b0382166107fa5760405163d92e233d60e01b815260040160405180910390fd5b6001600160a01b0382166000908152600760205260408120805483929061082b9084906001600160601b0316612577565b92506101000a8154816001600160601b0302191690836001600160601b031602179055506108598282611628565b6001600160a01b0380831660009081526008602052604081205461087e9216836116e7565b5050565b606060038054610891906125a2565b80601f01602080910402602001604051908101604052809291908181526020018280546108bd906125a2565b801561090a5780601f106108df5761010080835404028352916020019161090a565b820191906000526020600020905b8154815290600101906020018083116108ed57829003601f168201915b5050505050905090565b600033610922818585611846565b5060019392505050565b61093461196a565b61093f6000826119c4565b61087e600083611a2b565b600033610958858285611a35565b610963858585611aaf565b506001949350505050565b60008281526006602052604090206001015461098981611c53565b6109938383611c5d565b505050565b6001600160a01b0381163314610a0d5760405162461bcd60e51b815260206004820152602f60248201527f416363657373436f6e74726f6c3a2063616e206f6e6c792072656e6f756e636560448201526e103937b632b9903337b91039b2b63360891b60648201526084015b60405180910390fd5b61087e82826119c4565b600033610922818585610a2a83836114eb565b610a3491906125dc565b611846565b33610a575760405163d92e233d60e01b815260040160405180910390fd5b3360009081526007602052604081208054839290610a7f9084906001600160601b03166125f4565b92506101000a8154816001600160601b0302191690836001600160601b03160217905550610aad3382611ce3565b50565b610ada7f97667070c54ef182b0f5858b034beac1b6f3089aa2d3188bb1e8929f4fa9b92933610eab565b80610aeb5750610aeb600033610eab565b15610b0957604051630766999960e41b815260040160405180910390fd5b610aad7ffbd454f36a7e1a388bd6fc3ab10d434aa4578f811acbbcf33afb1c697486313c82611a2b565b610aad3382611e15565b610b4561196a565b610b4f6000611e8e565b565b610b5c600033610eab565b1580610b7357506005546001600160a01b03163314155b15610b9157604051630766999960e41b815260040160405180910390fd5b610aad7f97667070c54ef182b0f5858b034beac1b6f3089aa2d3188bb1e8929f4fa9b92982611a2b565b6000438210610c1e5760405162461bcd60e51b815260206004820152602960248201527f54414c454e543a3a6765745072696f72566f7465733a206e6f74207965742064604482015268195d195c9b5a5b995960ba1b6064820152608401610a04565b6001600160a01b0383166000908152600b602052604081205463ffffffff1690819003610c4f576000915050610760565b6001600160a01b0384166000908152600a602052604081208491610c7460018561261c565b63ffffffff90811682526020820192909252604001600020541611610cdd576001600160a01b0384166000908152600a6020526040812090610cb760018461261c565b63ffffffff1663ffffffff16815260200190815260200160002060010154915050610760565b6001600160a01b0384166000908152600a6020908152604080832083805290915290205463ffffffff16831015610d18576000915050610760565b600080610d2660018461261c565b90505b8163ffffffff168163ffffffff161115610dee5760006002610d4b848461261c565b610d559190612639565b610d5f908361261c565b6001600160a01b0388166000908152600a6020908152604080832063ffffffff8086168552908352928190208151808301909252805490931680825260019093015491810191909152919250879003610dc2576020015194506107609350505050565b805163ffffffff16871115610dd957819350610de7565b610de460018361261c565b92505b5050610d29565b506001600160a01b0385166000908152600a6020908152604080832063ffffffff9094168352929052206001015491505092915050565b6001600160a01b038216610e4c5760405163d92e233d60e01b815260040160405180910390fd5b6001600160a01b03821660009081526007602052604081208054839290610e7d9084906001600160601b03166125f4565b92506101000a8154816001600160601b0302191690836001600160601b0316021790555061087e8282611ce3565b60009182526006602090815260408084206001600160a01b0393909316845291905290205460ff1690565b606060048054610891906125a2565b60003381610ef382866114eb565b905083811015610f535760405162461bcd60e51b815260206004820152602560248201527f45524332303a2064656372656173656420616c6c6f77616e63652062656c6f77604482015264207a65726f60d81b6064820152608401610a04565b6109638286868403611846565b600033610922818585611aaf565b6001600160a01b0381166000908152600b602052604081205463ffffffff1680610f99576000610fdc565b6001600160a01b0383166000908152600a6020526040812090610fbd60018461261c565b63ffffffff1663ffffffff168152602001908152602001600020600101545b9392505050565b60007f2ce9970b46ea1bff1d78000ab660407f50a9499f6742ac914d6e6aa91d8c8b2461100e610882565b8051906020012061101c4690565b60408051602080820195909552808201939093526060830191909152306080808401919091528151808403909101815260a0830182528051908401207f5fcb5c7123eaeba08e343f760098721481a2c32d9a76aa02603c5a558628555760c08401526001600160a01b038b1660e084015261010083018a90526101208084018a90528251808503909101815261014084019092528151919093012061190160f01b610160830152610162820183905261018282018190529192506000906101a20160408051601f198184030181528282528051602091820120600080855291840180845281905260ff8a169284019290925260608301889052608083018790529092509060019060a0016020604051602081039080840390855afa158015611148573d6000803e3d6000fd5b5050604051601f1901519150506001600160a01b03811661117c5760405163d92e233d60e01b815260040160405180910390fd5b6001600160a01b0381166000908152600c602052604081208054916111a08361266a565b9190505589146111c357604051633ab3447f60e11b815260040160405180910390fd5b8742106111e357604051630819bdcd60e01b815260040160405180910390fd5b6111ed818b611e15565b505050505b505050505050565b83421061121a576040516381efbd8d60e01b815260040160405180910390fd5b6001600160a01b0387166000908152600c6020526040812054907f2ce9970b46ea1bff1d78000ab660407f50a9499f6742ac914d6e6aa91d8c8b2461125d610882565b8051906020012061126b4690565b604080516020810194909452830191909152606082015230608082015260a00160408051601f1981840301815282825280516020918201207f6e71edae12b1b97f4d1f60370fef10105fa2faae0126114a169c64845d6126c9918401919091526001600160a01b03808d1692840192909252908a1660608301526080820189905260a0820184905260c08201889052915060009060e00160408051601f1981840301815290829052805160209182012061190160f01b918301919091526022820184905260428201819052915060009060620160408051601f198184030181528282528051602091820120600080855291840180845281905260ff8b169284019290925260608301899052608083018890529092509060019060a0016020604051602081039080840390855afa1580156113a9573d6000803e3d6000fd5b5050604051601f1901519150506001600160a01b0381166113dd5760405163d92e233d60e01b815260040160405180910390fd5b8b6001600160a01b0316816001600160a01b03161461140f57604051635fc483c560e01b815260040160405180910390fd5b6001600160a01b038c166000908152600c602052604081208054916114338361266a565b90915550506001600160a01b03808d166000908152600960209081526040808320938f168352929052208a905561146b8c8c8c611846565b8a6001600160a01b03168c6001600160a01b03167f8c5be1e5ebec7d5bd14f71427d1e84f3dd0314c0f7b2291e5b200ac8c7c3b9258c6040516114b091815260200190565b60405180910390a3505050505050505050505050565b6000828152600660205260409020600101546114e181611c53565b61099383836119c4565b6001600160a01b03918216600090815260016020908152604080832093909416825291909152205490565b61151e61196a565b610aad7f3b5d4cc60d3ec3516ee8ae083bd60934f6eb2a6c54b1229985c41bfb092b260382611a2b565b61155061196a565b6001600160a01b0381166115b55760405162461bcd60e51b815260206004820152602660248201527f4f776e61626c653a206e6577206f776e657220697320746865207a65726f206160448201526564647265737360d01b6064820152608401610a04565b610aad81611e8e565b6115c9600033610eab565b15806115e057506005546001600160a01b03163314155b156115fe57604051630766999960e41b815260040160405180910390fd5b610aad7f9f2df0fed2c77648de5860a4cc508cd0818c85b8b8a1ab4ceeef8d981c8956a682611a2b565b6001600160a01b03821661167e5760405162461bcd60e51b815260206004820152601f60248201527f45524332303a206d696e7420746f20746865207a65726f2061646472657373006044820152606401610a04565b806002600082825461169091906125dc565b90915550506001600160a01b038216600081815260208181526040808320805486019055518481527fddf252ad1be2c89b69c2b068fc378daa952ba7f163c4a11628f55a4df523b3ef910160405180910390a35050565b816001600160a01b0316836001600160a01b0316141580156117095750600081115b15610993576001600160a01b038316156117ac576001600160a01b0383166000908152600b602052604081205463ffffffff16908161174957600061178c565b6001600160a01b0385166000908152600a602052604081209061176d60018561261c565b63ffffffff1663ffffffff168152602001908152602001600020600101545b9050600061179a8483612683565b90506117a886848484611ee0565b5050505b6001600160a01b03821615610993576001600160a01b0382166000908152600b602052604081205463ffffffff1690816117e757600061182a565b6001600160a01b0384166000908152600a602052604081209061180b60018561261c565b63ffffffff1663ffffffff168152602001908152602001600020600101545b9050600061183884836125dc565b90506111f285848484611ee0565b6001600160a01b0383166118a85760405162461bcd60e51b8152602060048201526024808201527f45524332303a20617070726f76652066726f6d20746865207a65726f206164646044820152637265737360e01b6064820152608401610a04565b6001600160a01b0382166119095760405162461bcd60e51b815260206004820152602260248201527f45524332303a20617070726f766520746f20746865207a65726f206164647265604482015261737360f01b6064820152608401610a04565b6001600160a01b0383811660008181526001602090815260408083209487168084529482529182902085905590518481527f8c5be1e5ebec7d5bd14f71427d1e84f3dd0314c0f7b2291e5b200ac8c7c3b925910160405180910390a3505050565b6005546001600160a01b03163314610b4f5760405162461bcd60e51b815260206004820181905260248201527f4f776e61626c653a2063616c6c6572206973206e6f7420746865206f776e65726044820152606401610a04565b6119ce8282610eab565b1561087e5760008281526006602090815260408083206001600160a01b0385168085529252808320805460ff1916905551339285917ff6391f5c32d9c69d2a47ea670b442974b53935d1edc7fd64eb21e047a839171b9190a45050565b61087e8282611c5d565b6000611a4184846114eb565b90506000198114611aa95781811015611a9c5760405162461bcd60e51b815260206004820152601d60248201527f45524332303a20696e73756666696369656e7420616c6c6f77616e63650000006044820152606401610a04565b611aa98484848403611846565b50505050565b6001600160a01b038316611b135760405162461bcd60e51b815260206004820152602560248201527f45524332303a207472616e736665722066726f6d20746865207a65726f206164604482015264647265737360d81b6064820152608401610a04565b6001600160a01b038216611b755760405162461bcd60e51b815260206004820152602360248201527f45524332303a207472616e7366657220746f20746865207a65726f206164647260448201526265737360e81b6064820152608401610a04565b6001600160a01b03831660009081526020819052604090205481811015611bed5760405162461bcd60e51b815260206004820152602660248201527f45524332303a207472616e7366657220616d6f756e7420657863656564732062604482015265616c616e636560d01b6064820152608401610a04565b6001600160a01b03848116600081815260208181526040808320878703905593871680835291849020805487019055925185815290927fddf252ad1be2c89b69c2b068fc378daa952ba7f163c4a11628f55a4df523b3ef910160405180910390a3611aa9565b610aad8133612082565b611c678282610eab565b61087e5760008281526006602090815260408083206001600160a01b03851684529091529020805460ff19166001179055611c9f3390565b6001600160a01b0316816001600160a01b0316837f2f8788117e7eff1d82e926ec794901d17c78024a50270940304540a733656f0d60405160405180910390a45050565b6001600160a01b038216611d435760405162461bcd60e51b815260206004820152602160248201527f45524332303a206275726e2066726f6d20746865207a65726f206164647265736044820152607360f81b6064820152608401610a04565b6001600160a01b03821660009081526020819052604090205481811015611db75760405162461bcd60e51b815260206004820152602260248201527f45524332303a206275726e20616d6f756e7420657863656564732062616c616e604482015261636560f01b6064820152608401610a04565b6001600160a01b0383166000818152602081815260408083208686039055600280548790039055518581529192917fddf252ad1be2c89b69c2b068fc378daa952ba7f163c4a11628f55a4df523b3ef910160405180910390a3505050565b6001600160a01b038281166000818152600860208181526040808420805485845282862054949093528787166001600160a01b03198416811790915590519190951694919391928592917f3134e8a2e6d97e929a7e54011ea5485d7d196dd5f0ba4d4ef95803e8e3fc257f9190a4611aa98284836116e7565b600580546001600160a01b038381166001600160a01b0319831681179093556040519116919082907f8be0079c531659141344cd1fd0a4f28419497f9722a3daafe3b4186f6b6457e090600090a35050565b6000611f0443604051806060016040528060368152602001612791603691396120db565b905060008463ffffffff16118015611f5e57506001600160a01b0385166000908152600a6020526040812063ffffffff831691611f4260018861261c565b63ffffffff908116825260208201929092526040016000205416145b15611fa7576001600160a01b0385166000908152600a602052604081208391611f8860018861261c565b63ffffffff168152602081019190915260400160002060010155612037565b60408051808201825263ffffffff838116825260208083018681526001600160a01b038a166000908152600a83528581208a851682529092529390209151825463ffffffff19169116178155905160019182015561200690859061269a565b6001600160a01b0386166000908152600b60205260409020805463ffffffff191663ffffffff929092169190911790555b60408051848152602081018490526001600160a01b038716917fdec2bacdd2f05b59de34da9b523dff8be42e5e38e818c82fdb0bae774387a724910160405180910390a25050505050565b61208c8282610eab565b61087e576120998161210b565b6120a483602061211d565b6040516020016120b59291906126b9565b60408051601f198184030181529082905262461bcd60e51b8252610a0491600401612355565b60008164010000000084106121035760405162461bcd60e51b8152600401610a049190612355565b509192915050565b60606107606001600160a01b03831660145b6060600061212c83600261272e565b6121379060026125dc565b67ffffffffffffffff81111561214f5761214f61274d565b6040519080825280601f01601f191660200182016040528015612179576020820181803683370190505b509050600360fc1b8160008151811061219457612194612763565b60200101906001600160f81b031916908160001a905350600f60fb1b816001815181106121c3576121c3612763565b60200101906001600160f81b031916908160001a90535060006121e784600261272e565b6121f29060016125dc565b90505b600181111561226a576f181899199a1a9b1b9c1cb0b131b232b360811b85600f166010811061222657612226612763565b1a60f81b82828151811061223c5761223c612763565b60200101906001600160f81b031916908160001a90535060049490941c9361226381612779565b90506121f5565b508315610fdc5760405162461bcd60e51b815260206004820181905260248201527f537472696e67733a20686578206c656e67746820696e73756666696369656e746044820152606401610a04565b6000602082840312156122cb57600080fd5b81356001600160e01b031981168114610fdc57600080fd5b80356001600160a01b03811681146122fa57600080fd5b919050565b6000806040838503121561231257600080fd5b61231b836122e3565b946020939093013593505050565b60005b8381101561234457818101518382015260200161232c565b83811115611aa95750506000910152565b6020815260008251806020840152612374816040850160208701612329565b601f01601f19169190910160400192915050565b6000806040838503121561239b57600080fd5b6123a4836122e3565b91506123b2602084016122e3565b90509250929050565b6000806000606084860312156123d057600080fd5b6123d9846122e3565b92506123e7602085016122e3565b9150604084013590509250925092565b60006020828403121561240957600080fd5b5035919050565b6000806040838503121561242357600080fd5b823591506123b2602084016122e3565b60006020828403121561244557600080fd5b610fdc826122e3565b803560ff811681146122fa57600080fd5b60008060008060008060c0878903121561247857600080fd5b612481876122e3565b9550602087013594506040870135935061249d6060880161244e565b92506080870135915060a087013590509295509295509295565b600080600080600080600060e0888a0312156124d257600080fd5b6124db886122e3565b96506124e9602089016122e3565b955060408801359450606088013593506125056080890161244e565b925060a0880135915060c0880135905092959891949750929550565b6000806040838503121561253457600080fd5b61253d836122e3565b9150602083013563ffffffff8116811461255657600080fd5b809150509250929050565b634e487b7160e01b600052601160045260246000fd5b60006001600160601b0380831681851680830382111561259957612599612561565b01949350505050565b600181811c908216806125b657607f821691505b6020821081036125d657634e487b7160e01b600052602260045260246000fd5b50919050565b600082198211156125ef576125ef612561565b500190565b60006001600160601b038381169083168181101561261457612614612561565b039392505050565b600063ffffffff8381169083168181101561261457612614612561565b600063ffffffff8084168061265e57634e487b7160e01b600052601260045260246000fd5b92169190910492915050565b60006001820161267c5761267c612561565b5060010190565b60008282101561269557612695612561565b500390565b600063ffffffff80831681851680830382111561259957612599612561565b7f416363657373436f6e74726f6c3a206163636f756e74200000000000000000008152600083516126f1816017850160208801612329565b7001034b99036b4b9b9b4b733903937b6329607d1b6017918401918201528351612722816028840160208801612329565b01602801949350505050565b600081600019048311821515161561274857612748612561565b500290565b634e487b7160e01b600052604160045260246000fd5b634e487b7160e01b600052603260045260246000fd5b60008161278857612788612561565b50600019019056fe54414c454e543a3a5f7772697465436865636b706f696e743a20626c6f636b206e756d62657220657863656564732033322062697473a2646970667358221220470e6eb7ddaa46c0db10f138f7360326afe1c22904ba7595b5c6f66a2682893a64736f6c634300080d0033",
    "linkReferences": {}
  }
}