{
  "abi": [
    {
      "inputs": [],
      "stateMutability": "nonpayable",
      "type": "constructor"
    },
    {
      "inputs": [],
      "name": "_articleIds",
      "outputs": [
        {
          "internalType": "uint256",
          "name": "_value",
          "type": "uint256"
        }
      ],
      "stateMutability": "view",
      "type": "function"
    },
    {
      "inputs": [
        {
          "internalType": "address",
          "name": "authorAddress",
          "type": "address"
        },
        {
          "internalType": "string",
          "name": "arweaveHash",
          "type": "string"
        },
        {
          "internalType": "string",
          "name": "metadataPtr",
          "type": "string"
        },
        {
          "internalType": "uint256",
          "name": "paid",
          "type": "uint256"
        }
      ],
      "name": "addArticle",
      "outputs": [
        {
          "internalType": "uint256",
          "name": "",
          "type": "uint256"
        }
      ],
      "stateMutability": "nonpayable",
      "type": "function"
    },
    {
      "inputs": [
        {
          "internalType": "string",
          "name": "",
          "type": "string"
        }
      ],
      "name": "articles",
      "outputs": [
        {
          "internalType": "uint256",
          "name": "id",
          "type": "uint256"
        },
        {
          "internalType": "address",
          "name": "author",
          "type": "address"
        },
        {
          "internalType": "string",
          "name": "metadataPtr",
          "type": "string"
        },
        {
          "internalType": "string",
          "name": "arweaveHash",
          "type": "string"
        },
        {
          "internalType": "uint256",
          "name": "tokenId",
          "type": "uint256"
        },
        {
          "internalType": "uint256",
          "name": "paid",
          "type": "uint256"
        }
      ],
      "stateMutability": "view",
      "type": "function"
    },
    {
      "inputs": [
        {
          "internalType": "string",
          "name": "arweaveHash",
          "type": "string"
        }
      ],
      "name": "getArticleByHash",
      "outputs": [
        {
          "components": [
            {
              "internalType": "uint256",
              "name": "id",
              "type": "uint256"
            },
            {
              "internalType": "address",
              "name": "author",
              "type": "address"
            },
            {
              "internalType": "string",
              "name": "metadataPtr",
              "type": "string"
            },
            {
              "internalType": "string",
              "name": "arweaveHash",
              "type": "string"
            },
            {
              "internalType": "uint256",
              "name": "tokenId",
              "type": "uint256"
            },
            {
              "internalType": "uint256",
              "name": "paid",
              "type": "uint256"
            }
          ],
          "internalType": "struct ArticleEntity.Article",
          "name": "",
          "type": "tuple"
        }
      ],
      "stateMutability": "view",
      "type": "function"
    },
    {
      "inputs": [
        {
          "internalType": "uint256",
          "name": "articleId",
          "type": "uint256"
        }
      ],
      "name": "getArticleById",
      "outputs": [
        {
          "components": [
            {
              "internalType": "uint256",
              "name": "id",
              "type": "uint256"
            },
            {
              "internalType": "address",
              "name": "author",
              "type": "address"
            },
            {
              "internalType": "string",
              "name": "metadataPtr",
              "type": "string"
            },
            {
              "internalType": "string",
              "name": "arweaveHash",
              "type": "string"
            },
            {
              "internalType": "uint256",
              "name": "tokenId",
              "type": "uint256"
            },
            {
              "internalType": "uint256",
              "name": "paid",
              "type": "uint256"
            }
          ],
          "internalType": "struct ArticleEntity.Article",
          "name": "",
          "type": "tuple"
        }
      ],
      "stateMutability": "view",
      "type": "function"
    },
    {
      "inputs": [
        {
          "internalType": "uint256",
          "name": "articleId",
          "type": "uint256"
        },
        {
          "internalType": "address",
          "name": "authorAddress",
          "type": "address"
        }
      ],
      "name": "updateArticleAuthorAddress",
      "outputs": [],
      "stateMutability": "nonpayable",
      "type": "function"
    },
    {
      "inputs": [
        {
          "internalType": "uint256",
          "name": "articleId",
          "type": "uint256"
        },
        {
          "internalType": "string",
          "name": "newPointer",
          "type": "string"
        }
      ],
      "name": "updateArticleMetadata",
      "outputs": [],
      "stateMutability": "nonpayable",
      "type": "function"
    }
  ],
  "bytecode": {
    "object": "0x608060405234801561001057600080fd5b50610a3d806100206000396000f3fe608060405234801561001057600080fd5b506004361061007d5760003560e01c80636fd00fc81161005b5780636fd00fc8146100c75780637c702b8d146100e757806395c2cbb81461010c57806395de67361461011f57600080fd5b80630a6e81e4146100825780634d7564b21461009f5780635de55d69146100b4575b600080fd5b60005461008c9081565b6040519081526020015b60405180910390f35b6100b26100ad36600461071a565b610132565b005b6100b26100c236600461077d565b610175565b6100da6100d53660046107a9565b6101c0565b604051610096919061083e565b6100fa6100f53660046107a9565b61034c565b604051610096969594939291906108b4565b61008c61011a366004610906565b6104ab565b6100da61012d366004610982565b610522565b6000600183815481106101475761014761099b565b906000526020600020906006020190508181600201908051906020019061016f92919061059f565b50505050565b60006001838154811061018a5761018a61099b565b6000918252602090912060069091020160010180546001600160a01b0319166001600160a01b0393909316929092179091555050565b6101c8610623565b6002826040516101d891906109b1565b90815260408051918290036020908101832060c0840183528054845260018101546001600160a01b031691840191909152600281018054919284019161021d906109cd565b80601f0160208091040260200160405190810160405280929190818152602001828054610249906109cd565b80156102965780601f1061026b57610100808354040283529160200191610296565b820191906000526020600020905b81548152906001019060200180831161027957829003601f168201915b505050505081526020016003820180546102af906109cd565b80601f01602080910402602001604051908101604052809291908181526020018280546102db906109cd565b80156103285780601f106102fd57610100808354040283529160200191610328565b820191906000526020600020905b81548152906001019060200180831161030b57829003601f168201915b50505050508152602001600482015481526020016005820154815250509050919050565b80516020818301810180516002808352938301929094019190912092905281546001830154918301805491936001600160a01b03909316929161038e906109cd565b80601f01602080910402602001604051908101604052809291908181526020018280546103ba906109cd565b80156104075780601f106103dc57610100808354040283529160200191610407565b820191906000526020600020905b8154815290600101906020018083116103ea57829003601f168201915b50505050509080600301805461041c906109cd565b80601f0160208091040260200160405190810160405280929190818152602001828054610448906109cd565b80156104955780601f1061046a57610100808354040283529160200191610495565b820191906000526020600020905b81548152906001019060200180831161047857829003601f168201915b5050505050908060040154908060050154905086565b6000805460010180825560405182906002906104c89088906109b1565b908152604051602091819003820190208381556001810180546001600160a01b0319166001600160a01b038b161790556005810186905586519092506105169160028401919088019061059f565b50909695505050505050565b61052a610623565b6001828154811061053d5761053d61099b565b90600052602060002090600602016040518060c0016040529081600082015481526020016001820160009054906101000a90046001600160a01b03166001600160a01b03166001600160a01b0316815260200160028201805461021d906109cd565b8280546105ab906109cd565b90600052602060002090601f0160209004810192826105cd5760008555610613565b82601f106105e657805160ff1916838001178555610613565b82800160010185558215610613579182015b828111156106135782518255916020019190600101906105f8565b5061061f929150610662565b5090565b6040518060c001604052806000815260200160006001600160a01b03168152602001606081526020016060815260200160008152602001600081525090565b5b8082111561061f5760008155600101610663565b634e487b7160e01b600052604160045260246000fd5b600082601f83011261069e57600080fd5b813567ffffffffffffffff808211156106b9576106b9610677565b604051601f8301601f19908116603f011681019082821181831017156106e1576106e1610677565b816040528381528660208588010111156106fa57600080fd5b836020870160208301376000602085830101528094505050505092915050565b6000806040838503121561072d57600080fd5b82359150602083013567ffffffffffffffff81111561074b57600080fd5b6107578582860161068d565b9150509250929050565b80356001600160a01b038116811461077857600080fd5b919050565b6000806040838503121561079057600080fd5b823591506107a060208401610761565b90509250929050565b6000602082840312156107bb57600080fd5b813567ffffffffffffffff8111156107d257600080fd5b6107de8482850161068d565b949350505050565b60005b838110156108015781810151838201526020016107e9565b8381111561016f5750506000910152565b6000815180845261082a8160208601602086016107e6565b601f01601f19169290920160200192915050565b602081528151602082015260018060a01b0360208301511660408201526000604083015160c0606084015261087660e0840182610812565b90506060840151601f198483030160808501526108938282610812565b915050608084015160a084015260a084015160c08401528091505092915050565b8681526001600160a01b038616602082015260c0604082018190526000906108de90830187610812565b82810360608401526108f08187610812565b6080840195909552505060a00152949350505050565b6000806000806080858703121561091c57600080fd5b61092585610761565b9350602085013567ffffffffffffffff8082111561094257600080fd5b61094e8883890161068d565b9450604087013591508082111561096457600080fd5b506109718782880161068d565b949793965093946060013593505050565b60006020828403121561099457600080fd5b5035919050565b634e487b7160e01b600052603260045260246000fd5b600082516109c38184602087016107e6565b9190910192915050565b600181811c908216806109e157607f821691505b602082108103610a0157634e487b7160e01b600052602260045260246000fd5b5091905056fea26469706673582212201ffeff43ddbf03ca9478996ad87a96046f7ddf421a411c78368d718e95b3fd7d64736f6c634300080d0033",
    "linkReferences": {}
  }
}